{
  "address": "0x0165878A594ca255338adfa4d48449f69242Eb8F",
  "abi": [
    {
      "constant": false,
      "inputs": [
        {
          "name": "token",
          "type": "address"
        },
        {
          "name": "from",
          "type": "address"
        },
        {
          "name": "to",
          "type": "address"
        },
        {
          "name": "amount",
          "type": "uint256"
        }
      ],
      "name": "transferFrom",
      "outputs": [
        {
          "name": "",
          "type": "bool"
        }
      ],
      "payable": false,
      "stateMutability": "nonpayable",
      "type": "function"
    },
    {
      "constant": true,
      "inputs": [],
      "name": "registry",
      "outputs": [
        {
          "name": "",
          "type": "address"
        }
      ],
      "payable": false,
      "stateMutability": "view",
      "type": "function"
    },
    {
      "inputs": [
        {
          "name": "registryAddr",
          "type": "address"
        }
      ],
      "payable": false,
      "stateMutability": "nonpayable",
      "type": "constructor"
    }
  ],
  "transactionHash": "0x015be06dc56cfd193dc8cbc20e8a82394afb96d33858d6b3b9559768c5a2654e",
  "args": [
    "0x5FC8d32690cc91D4c39d9d3abcBD16989F875707"
  ],
  "numDeployments": 1,
  "solcInputHash": "e71906c59142764c7a12ed306d380657",
  "bytecode": "0x608060405234801561001057600080fd5b506040516020806102d9833981016040525160008054600160a060020a03909216600160a060020a0319909216919091179055610287806100526000396000f30060806040526004361061004b5763ffffffff7c010000000000000000000000000000000000000000000000000000000060003504166315dacbea81146100505780637b103999146100a1575b600080fd5b34801561005c57600080fd5b5061008d73ffffffffffffffffffffffffffffffffffffffff600435811690602435811690604435166064356100df565b604080519115158252519081900360200190f35b3480156100ad57600080fd5b506100b661023f565b6040805173ffffffffffffffffffffffffffffffffffffffff9092168252519081900360200190f35b60008054604080517f69dc9ff3000000000000000000000000000000000000000000000000000000008152336004820152905173ffffffffffffffffffffffffffffffffffffffff909216916369dc9ff39160248082019260209290919082900301818787803b15801561015257600080fd5b505af1158015610166573d6000803e3d6000fd5b505050506040513d602081101561017c57600080fd5b5051151561018957600080fd5b604080517f23b872dd00000000000000000000000000000000000000000000000000000000815273ffffffffffffffffffffffffffffffffffffffff86811660048301528581166024830152604482018590529151918716916323b872dd916064808201926020929091908290030181600087803b15801561020a57600080fd5b505af115801561021e573d6000803e3d6000fd5b505050506040513d602081101561023457600080fd5b505195945050505050565b60005473ffffffffffffffffffffffffffffffffffffffff16815600a165627a7a72305820bbb226fd67931cbefd51d1e2c2ffa1c2ccd1444d10afcafbe0f03699115e0e8a0029",
  "devdoc": {
    "methods": {
      "transferFrom(address,address,address,uint256)": {
        "details": "Authenticated contract only\r",
        "params": {
          "amount": "Transfer amount\r",
          "from": "From address\r",
          "to": "To address\r",
          "token": "ERC20 token address\r"
        }
      }
    }
  },
  "userdoc": {
    "methods": {
      "transferFrom(address,address,address,uint256)": {
        "notice": "Call ERC20 `transferFrom`\r "
      }
    }
  }
}