{
  "address": "0xCf7Ed3AccA5a467e9e704C703E8D87F634fB0Fc9",
  "abi": [
    {
      "constant": false,
      "inputs": [],
      "name": "renounceOwnership",
      "outputs": [],
      "payable": false,
      "stateMutability": "nonpayable",
      "type": "function"
    },
    {
      "constant": true,
      "inputs": [],
      "name": "owner",
      "outputs": [
        {
          "name": "",
          "type": "address"
        }
      ],
      "payable": false,
      "stateMutability": "view",
      "type": "function"
    },
    {
      "constant": false,
      "inputs": [
        {
          "name": "from",
          "type": "address"
        },
        {
          "name": "value",
          "type": "uint256"
        },
        {
          "name": "token",
          "type": "address"
        },
        {
          "name": "extraData",
          "type": "bytes"
        }
      ],
      "name": "receiveApproval",
      "outputs": [],
      "payable": false,
      "stateMutability": "nonpayable",
      "type": "function"
    },
    {
      "constant": false,
      "inputs": [
        {
          "name": "dest",
          "type": "address"
        },
        {
          "name": "calldata",
          "type": "bytes"
        }
      ],
      "name": "delegateProxyAssert",
      "outputs": [],
      "payable": false,
      "stateMutability": "nonpayable",
      "type": "function"
    },
    {
      "constant": false,
      "inputs": [
        {
          "name": "newOwner",
          "type": "address"
        }
      ],
      "name": "transferOwnership",
      "outputs": [],
      "payable": false,
      "stateMutability": "nonpayable",
      "type": "function"
    },
    {
      "constant": false,
      "inputs": [
        {
          "name": "dest",
          "type": "address"
        },
        {
          "name": "calldata",
          "type": "bytes"
        }
      ],
      "name": "delegateProxy",
      "outputs": [
        {
          "name": "result",
          "type": "bool"
        }
      ],
      "payable": false,
      "stateMutability": "nonpayable",
      "type": "function"
    },
    {
      "inputs": [],
      "payable": false,
      "stateMutability": "nonpayable",
      "type": "constructor"
    },
    {
      "payable": true,
      "stateMutability": "payable",
      "type": "fallback"
    },
    {
      "anonymous": false,
      "inputs": [
        {
          "indexed": true,
          "name": "previousOwner",
          "type": "address"
        }
      ],
      "name": "OwnershipRenounced",
      "type": "event"
    },
    {
      "anonymous": false,
      "inputs": [
        {
          "indexed": true,
          "name": "previousOwner",
          "type": "address"
        },
        {
          "indexed": true,
          "name": "newOwner",
          "type": "address"
        }
      ],
      "name": "OwnershipTransferred",
      "type": "event"
    },
    {
      "anonymous": false,
      "inputs": [
        {
          "indexed": true,
          "name": "sender",
          "type": "address"
        },
        {
          "indexed": false,
          "name": "amount",
          "type": "uint256"
        }
      ],
      "name": "ReceivedEther",
      "type": "event"
    },
    {
      "anonymous": false,
      "inputs": [
        {
          "indexed": true,
          "name": "from",
          "type": "address"
        },
        {
          "indexed": false,
          "name": "value",
          "type": "uint256"
        },
        {
          "indexed": true,
          "name": "token",
          "type": "address"
        },
        {
          "indexed": false,
          "name": "extraData",
          "type": "bytes"
        }
      ],
      "name": "ReceivedTokens",
      "type": "event"
    }
  ],
  "transactionHash": "0x3493a0ea67bb125b2a58b0b7949ced8e970568af3ea551429bde5a547533a916",
  "args": [],
  "numDeployments": 1,
  "solcInputHash": "e71906c59142764c7a12ed306d380657",
  "bytecode": "0x608060405234801561001057600080fd5b5060008054600160a060020a0319908116339081179091161790556105b68061003a6000396000f3006080604052600436106100775763ffffffff7c0100000000000000000000000000000000000000000000000000000000600035041663715018a681146100af5780638da5cb5b146100c65780638f4ffcb1146100f7578063a018f2b214610167578063f2fde38b146101ce578063fc74dadd146101ef575b60408051348152905133917fa419615bc8fda4c87663805ee2a3597a6d71c1d476911d9892f340d965bc7bf1919081900360200190a2005b3480156100bb57600080fd5b506100c461026a565b005b3480156100d257600080fd5b506100db6102d6565b60408051600160a060020a039092168252519081900360200190f35b34801561010357600080fd5b50604080516020601f6064356004818101359283018490048402850184019095528184526100c494600160a060020a038135811695602480359660443590931695369560849492019181908401838280828437509497506102e59650505050505050565b34801561017357600080fd5b5060408051602060046024803582810135601f81018590048502860185019096528585526100c4958335600160a060020a031695369560449491939091019190819084018382808284375094975061044a9650505050505050565b3480156101da57600080fd5b506100c4600160a060020a0360043516610463565b3480156101fb57600080fd5b5060408051602060046024803582810135601f8101859004850286018501909652858552610256958335600160a060020a03169536956044949193909101919081908401838280828437509497506104f79650505050505050565b604080519115158252519081900360200190f35b600054600160a060020a0316331461028157600080fd5b60008054604051600160a060020a03909116917ff8df31144d9c2f0f6b59d69b8b98abd5459d07f2742c4df920b25aae33c6482091a26000805473ffffffffffffffffffffffffffffffffffffffff19169055565b600054600160a060020a031681565b604080517f23b872dd000000000000000000000000000000000000000000000000000000008152600160a060020a03868116600483015230602483015260448201869052915184928316916323b872dd9160648083019260209291908290030181600087803b15801561035757600080fd5b505af115801561036b573d6000803e3d6000fd5b505050506040513d602081101561038157600080fd5b5051151561038e57600080fd5b82600160a060020a031685600160a060020a03167fd65b48fd35864b3528d38e44760be5553248f89bf3ff6b06cca57817cc2650bf86856040518083815260200180602001828103825283818151815260200191508051906020019080838360005b838110156104085781810151838201526020016103f0565b50505050905090810190601f1680156104355780820380516001836020036101000a031916815260200191505b50935050505060405180910390a35050505050565b61045482826104f7565b151561045f57600080fd5b5050565b600054600160a060020a0316331461047a57600080fd5b600160a060020a038116151561048f57600080fd5b60008054604051600160a060020a03808516939216917f8be0079c531659141344cd1fd0a4f28419497f9722a3daafe3b4186f6b6457e091a36000805473ffffffffffffffffffffffffffffffffffffffff1916600160a060020a0392909216919091179055565b60008054600160a060020a0316331461050f57600080fd5b82600160a060020a03168260405180828051906020019080838360005b8381101561054457818101518382015260200161052c565b50505050905090810190601f1680156105715780820380516001836020036101000a031916815260200191505b50915050600060405180830381855af4959450505050505600a165627a7a723058203a04d703260b12a2e14e7f693144c4049f61990fa7222e088c6502df056ce6640029",
  "devdoc": {
    "methods": {
      "delegateProxy(address,bytes)": {
        "details": "Owner only\r",
        "params": {
          "calldata": "Calldata to send\r",
          "dest": "Address to which the call will be sent\r"
        },
        "return": "Result of the delegatecall (success or failure)\r"
      },
      "delegateProxyAssert(address,bytes)": {
        "details": "Same functionality as `delegateProxy`, just asserts the return value\r",
        "params": {
          "calldata": "Calldata to send\r",
          "dest": "Address to which the call will be sent\r"
        }
      },
      "receiveApproval(address,uint256,address,bytes)": {
        "details": "Receive tokens and generate a log event\r",
        "params": {
          "extraData": "Additional data to log\r",
          "from": "Address from which to transfer tokens\r",
          "token": "Address of token\r",
          "value": "Amount of tokens to transfer\r"
        }
      },
      "renounceOwnership()": {
        "details": "Allows the current owner to relinquish control of the contract.\r"
      },
      "transferOwnership(address)": {
        "details": "Allows the current owner to transfer control of the contract to a newOwner.\r",
        "params": {
          "newOwner": "The address to transfer ownership to.\r"
        }
      }
    }
  },
  "userdoc": {
    "methods": {
      "delegateProxy(address,bytes)": {
        "notice": "Execute a DELEGATECALL from the proxy contract\r "
      },
      "delegateProxyAssert(address,bytes)": {
        "notice": "Execute a DELEGATECALL and assert success\r "
      }
    }
  }
}