{
  "address": "0x5FC8d32690cc91D4c39d9d3abcBD16989F875707",
  "abi": [
    {
      "constant": true,
      "inputs": [],
      "name": "name",
      "outputs": [
        {
          "name": "",
          "type": "string"
        }
      ],
      "payable": false,
      "stateMutability": "view",
      "type": "function"
    },
    {
      "constant": true,
      "inputs": [],
      "name": "tokenTransferProxy",
      "outputs": [
        {
          "name": "",
          "type": "address"
        }
      ],
      "payable": false,
      "stateMutability": "view",
      "type": "function"
    },
    {
      "constant": true,
      "inputs": [
        {
          "name": "target",
          "type": "address"
        },
        {
          "name": "calldata",
          "type": "bytes"
        },
        {
          "name": "extradata",
          "type": "bytes"
        }
      ],
      "name": "staticCall",
      "outputs": [
        {
          "name": "result",
          "type": "bool"
        }
      ],
      "payable": false,
      "stateMutability": "view",
      "type": "function"
    },
    {
      "constant": false,
      "inputs": [
        {
          "name": "newMinimumMakerProtocolFee",
          "type": "uint256"
        }
      ],
      "name": "changeMinimumMakerProtocolFee",
      "outputs": [],
      "payable": false,
      "stateMutability": "nonpayable",
      "type": "function"
    },
    {
      "constant": false,
      "inputs": [
        {
          "name": "newMinimumTakerProtocolFee",
          "type": "uint256"
        }
      ],
      "name": "changeMinimumTakerProtocolFee",
      "outputs": [],
      "payable": false,
      "stateMutability": "nonpayable",
      "type": "function"
    },
    {
      "constant": true,
      "inputs": [
        {
          "name": "array",
          "type": "bytes"
        },
        {
          "name": "desired",
          "type": "bytes"
        },
        {
          "name": "mask",
          "type": "bytes"
        }
      ],
      "name": "guardedArrayReplace",
      "outputs": [
        {
          "name": "",
          "type": "bytes"
        }
      ],
      "payable": false,
      "stateMutability": "pure",
      "type": "function"
    },
    {
      "constant": true,
      "inputs": [],
      "name": "minimumTakerProtocolFee",
      "outputs": [
        {
          "name": "",
          "type": "uint256"
        }
      ],
      "payable": false,
      "stateMutability": "view",
      "type": "function"
    },
    {
      "constant": true,
      "inputs": [],
      "name": "codename",
      "outputs": [
        {
          "name": "",
          "type": "string"
        }
      ],
      "payable": false,
      "stateMutability": "view",
      "type": "function"
    },
    {
      "constant": true,
      "inputs": [],
      "name": "DOMAIN_SEPARATOR",
      "outputs": [
        {
          "name": "",
          "type": "bytes32"
        }
      ],
      "payable": false,
      "stateMutability": "view",
      "type": "function"
    },
    {
      "constant": true,
      "inputs": [
        {
          "name": "addrs",
          "type": "address[7]"
        },
        {
          "name": "uints",
          "type": "uint256[9]"
        },
        {
          "name": "feeMethod",
          "type": "uint8"
        },
        {
          "name": "side",
          "type": "uint8"
        },
        {
          "name": "saleKind",
          "type": "uint8"
        },
        {
          "name": "howToCall",
          "type": "uint8"
        },
        {
          "name": "calldata",
          "type": "bytes"
        },
        {
          "name": "replacementPattern",
          "type": "bytes"
        },
        {
          "name": "staticExtradata",
          "type": "bytes"
        }
      ],
      "name": "calculateCurrentPrice_",
      "outputs": [
        {
          "name": "",
          "type": "uint256"
        }
      ],
      "payable": false,
      "stateMutability": "view",
      "type": "function"
    },
    {
      "constant": false,
      "inputs": [
        {
          "name": "newProtocolFeeRecipient",
          "type": "address"
        }
      ],
      "name": "changeProtocolFeeRecipient",
      "outputs": [],
      "payable": false,
      "stateMutability": "nonpayable",
      "type": "function"
    },
    {
      "constant": true,
      "inputs": [],
      "name": "version",
      "outputs": [
        {
          "name": "",
          "type": "string"
        }
      ],
      "payable": false,
      "stateMutability": "view",
      "type": "function"
    },
    {
      "constant": true,
      "inputs": [
        {
          "name": "buyCalldata",
          "type": "bytes"
        },
        {
          "name": "buyReplacementPattern",
          "type": "bytes"
        },
        {
          "name": "sellCalldata",
          "type": "bytes"
        },
        {
          "name": "sellReplacementPattern",
          "type": "bytes"
        }
      ],
      "name": "orderCalldataCanMatch",
      "outputs": [
        {
          "name": "",
          "type": "bool"
        }
      ],
      "payable": false,
      "stateMutability": "pure",
      "type": "function"
    },
    {
      "constant": true,
      "inputs": [
        {
          "name": "addrs",
          "type": "address[7]"
        },
        {
          "name": "uints",
          "type": "uint256[9]"
        },
        {
          "name": "feeMethod",
          "type": "uint8"
        },
        {
          "name": "side",
          "type": "uint8"
        },
        {
          "name": "saleKind",
          "type": "uint8"
        },
        {
          "name": "howToCall",
          "type": "uint8"
        },
        {
          "name": "calldata",
          "type": "bytes"
        },
        {
          "name": "replacementPattern",
          "type": "bytes"
        },
        {
          "name": "staticExtradata",
          "type": "bytes"
        },
        {
          "name": "v",
          "type": "uint8"
        },
        {
          "name": "r",
          "type": "bytes32"
        },
        {
          "name": "s",
          "type": "bytes32"
        }
      ],
      "name": "validateOrder_",
      "outputs": [
        {
          "name": "",
          "type": "bool"
        }
      ],
      "payable": false,
      "stateMutability": "view",
      "type": "function"
    },
    {
      "constant": false,
      "inputs": [],
      "name": "incrementNonce",
      "outputs": [],
      "payable": false,
      "stateMutability": "nonpayable",
      "type": "function"
    },
    {
      "constant": true,
      "inputs": [
        {
          "name": "side",
          "type": "uint8"
        },
        {
          "name": "saleKind",
          "type": "uint8"
        },
        {
          "name": "basePrice",
          "type": "uint256"
        },
        {
          "name": "extra",
          "type": "uint256"
        },
        {
          "name": "listingTime",
          "type": "uint256"
        },
        {
          "name": "expirationTime",
          "type": "uint256"
        }
      ],
      "name": "calculateFinalPrice",
      "outputs": [
        {
          "name": "",
          "type": "uint256"
        }
      ],
      "payable": false,
      "stateMutability": "view",
      "type": "function"
    },
    {
      "constant": true,
      "inputs": [],
      "name": "protocolFeeRecipient",
      "outputs": [
        {
          "name": "",
          "type": "address"
        }
      ],
      "payable": false,
      "stateMutability": "view",
      "type": "function"
    },
    {
      "constant": false,
      "inputs": [],
      "name": "renounceOwnership",
      "outputs": [],
      "payable": false,
      "stateMutability": "nonpayable",
      "type": "function"
    },
    {
      "constant": true,
      "inputs": [
        {
          "name": "addrs",
          "type": "address[7]"
        },
        {
          "name": "uints",
          "type": "uint256[9]"
        },
        {
          "name": "feeMethod",
          "type": "uint8"
        },
        {
          "name": "side",
          "type": "uint8"
        },
        {
          "name": "saleKind",
          "type": "uint8"
        },
        {
          "name": "howToCall",
          "type": "uint8"
        },
        {
          "name": "calldata",
          "type": "bytes"
        },
        {
          "name": "replacementPattern",
          "type": "bytes"
        },
        {
          "name": "staticExtradata",
          "type": "bytes"
        }
      ],
      "name": "hashOrder_",
      "outputs": [
        {
          "name": "",
          "type": "bytes32"
        }
      ],
      "payable": false,
      "stateMutability": "view",
      "type": "function"
    },
    {
      "constant": true,
      "inputs": [
        {
          "name": "addrs",
          "type": "address[14]"
        },
        {
          "name": "uints",
          "type": "uint256[18]"
        },
        {
          "name": "feeMethodsSidesKindsHowToCalls",
          "type": "uint8[8]"
        },
        {
          "name": "calldataBuy",
          "type": "bytes"
        },
        {
          "name": "calldataSell",
          "type": "bytes"
        },
        {
          "name": "replacementPatternBuy",
          "type": "bytes"
        },
        {
          "name": "replacementPatternSell",
          "type": "bytes"
        },
        {
          "name": "staticExtradataBuy",
          "type": "bytes"
        },
        {
          "name": "staticExtradataSell",
          "type": "bytes"
        }
      ],
      "name": "ordersCanMatch_",
      "outputs": [
        {
          "name": "",
          "type": "bool"
        }
      ],
      "payable": false,
      "stateMutability": "view",
      "type": "function"
    },
    {
      "constant": false,
      "inputs": [
        {
          "name": "addrs",
          "type": "address[7]"
        },
        {
          "name": "uints",
          "type": "uint256[9]"
        },
        {
          "name": "feeMethod",
          "type": "uint8"
        },
        {
          "name": "side",
          "type": "uint8"
        },
        {
          "name": "saleKind",
          "type": "uint8"
        },
        {
          "name": "howToCall",
          "type": "uint8"
        },
        {
          "name": "calldata",
          "type": "bytes"
        },
        {
          "name": "replacementPattern",
          "type": "bytes"
        },
        {
          "name": "staticExtradata",
          "type": "bytes"
        },
        {
          "name": "orderbookInclusionDesired",
          "type": "bool"
        }
      ],
      "name": "approveOrder_",
      "outputs": [],
      "payable": false,
      "stateMutability": "nonpayable",
      "type": "function"
    },
    {
      "constant": true,
      "inputs": [],
      "name": "registry",
      "outputs": [
        {
          "name": "",
          "type": "address"
        }
      ],
      "payable": false,
      "stateMutability": "view",
      "type": "function"
    },
    {
      "constant": true,
      "inputs": [],
      "name": "minimumMakerProtocolFee",
      "outputs": [
        {
          "name": "",
          "type": "uint256"
        }
      ],
      "payable": false,
      "stateMutability": "view",
      "type": "function"
    },
    {
      "constant": true,
      "inputs": [
        {
          "name": "addrs",
          "type": "address[7]"
        },
        {
          "name": "uints",
          "type": "uint256[9]"
        },
        {
          "name": "feeMethod",
          "type": "uint8"
        },
        {
          "name": "side",
          "type": "uint8"
        },
        {
          "name": "saleKind",
          "type": "uint8"
        },
        {
          "name": "howToCall",
          "type": "uint8"
        },
        {
          "name": "calldata",
          "type": "bytes"
        },
        {
          "name": "replacementPattern",
          "type": "bytes"
        },
        {
          "name": "staticExtradata",
          "type": "bytes"
        }
      ],
      "name": "hashToSign_",
      "outputs": [
        {
          "name": "",
          "type": "bytes32"
        }
      ],
      "payable": false,
      "stateMutability": "view",
      "type": "function"
    },
    {
      "constant": true,
      "inputs": [
        {
          "name": "",
          "type": "address"
        }
      ],
      "name": "nonces",
      "outputs": [
        {
          "name": "",
          "type": "uint256"
        }
      ],
      "payable": false,
      "stateMutability": "view",
      "type": "function"
    },
    {
      "constant": true,
      "inputs": [
        {
          "name": "",
          "type": "bytes32"
        }
      ],
      "name": "cancelledOrFinalized",
      "outputs": [
        {
          "name": "",
          "type": "bool"
        }
      ],
      "payable": false,
      "stateMutability": "view",
      "type": "function"
    },
    {
      "constant": true,
      "inputs": [],
      "name": "owner",
      "outputs": [
        {
          "name": "",
          "type": "address"
        }
      ],
      "payable": false,
      "stateMutability": "view",
      "type": "function"
    },
    {
      "constant": true,
      "inputs": [],
      "name": "exchangeToken",
      "outputs": [
        {
          "name": "",
          "type": "address"
        }
      ],
      "payable": false,
      "stateMutability": "view",
      "type": "function"
    },
    {
      "constant": false,
      "inputs": [
        {
          "name": "addrs",
          "type": "address[7]"
        },
        {
          "name": "uints",
          "type": "uint256[9]"
        },
        {
          "name": "feeMethod",
          "type": "uint8"
        },
        {
          "name": "side",
          "type": "uint8"
        },
        {
          "name": "saleKind",
          "type": "uint8"
        },
        {
          "name": "howToCall",
          "type": "uint8"
        },
        {
          "name": "calldata",
          "type": "bytes"
        },
        {
          "name": "replacementPattern",
          "type": "bytes"
        },
        {
          "name": "staticExtradata",
          "type": "bytes"
        },
        {
          "name": "v",
          "type": "uint8"
        },
        {
          "name": "r",
          "type": "bytes32"
        },
        {
          "name": "s",
          "type": "bytes32"
        }
      ],
      "name": "cancelOrder_",
      "outputs": [],
      "payable": false,
      "stateMutability": "nonpayable",
      "type": "function"
    },
    {
      "constant": false,
      "inputs": [
        {
          "name": "addrs",
          "type": "address[14]"
        },
        {
          "name": "uints",
          "type": "uint256[18]"
        },
        {
          "name": "feeMethodsSidesKindsHowToCalls",
          "type": "uint8[8]"
        },
        {
          "name": "calldataBuy",
          "type": "bytes"
        },
        {
          "name": "calldataSell",
          "type": "bytes"
        },
        {
          "name": "replacementPatternBuy",
          "type": "bytes"
        },
        {
          "name": "replacementPatternSell",
          "type": "bytes"
        },
        {
          "name": "staticExtradataBuy",
          "type": "bytes"
        },
        {
          "name": "staticExtradataSell",
          "type": "bytes"
        },
        {
          "name": "vs",
          "type": "uint8[2]"
        },
        {
          "name": "rssMetadata",
          "type": "bytes32[5]"
        }
      ],
      "name": "atomicMatch_",
      "outputs": [],
      "payable": true,
      "stateMutability": "payable",
      "type": "function"
    },
    {
      "constant": true,
      "inputs": [
        {
          "name": "addrs",
          "type": "address[7]"
        },
        {
          "name": "uints",
          "type": "uint256[9]"
        },
        {
          "name": "feeMethod",
          "type": "uint8"
        },
        {
          "name": "side",
          "type": "uint8"
        },
        {
          "name": "saleKind",
          "type": "uint8"
        },
        {
          "name": "howToCall",
          "type": "uint8"
        },
        {
          "name": "calldata",
          "type": "bytes"
        },
        {
          "name": "replacementPattern",
          "type": "bytes"
        },
        {
          "name": "staticExtradata",
          "type": "bytes"
        }
      ],
      "name": "validateOrderParameters_",
      "outputs": [
        {
          "name": "",
          "type": "bool"
        }
      ],
      "payable": false,
      "stateMutability": "view",
      "type": "function"
    },
    {
      "constant": true,
      "inputs": [],
      "name": "INVERSE_BASIS_POINT",
      "outputs": [
        {
          "name": "",
          "type": "uint256"
        }
      ],
      "payable": false,
      "stateMutability": "view",
      "type": "function"
    },
    {
      "constant": true,
      "inputs": [
        {
          "name": "addrs",
          "type": "address[14]"
        },
        {
          "name": "uints",
          "type": "uint256[18]"
        },
        {
          "name": "feeMethodsSidesKindsHowToCalls",
          "type": "uint8[8]"
        },
        {
          "name": "calldataBuy",
          "type": "bytes"
        },
        {
          "name": "calldataSell",
          "type": "bytes"
        },
        {
          "name": "replacementPatternBuy",
          "type": "bytes"
        },
        {
          "name": "replacementPatternSell",
          "type": "bytes"
        },
        {
          "name": "staticExtradataBuy",
          "type": "bytes"
        },
        {
          "name": "staticExtradataSell",
          "type": "bytes"
        }
      ],
      "name": "calculateMatchPrice_",
      "outputs": [
        {
          "name": "",
          "type": "uint256"
        }
      ],
      "payable": false,
      "stateMutability": "view",
      "type": "function"
    },
    {
      "constant": true,
      "inputs": [
        {
          "name": "hash",
          "type": "bytes32"
        }
      ],
      "name": "approvedOrders",
      "outputs": [
        {
          "name": "approved",
          "type": "bool"
        }
      ],
      "payable": false,
      "stateMutability": "view",
      "type": "function"
    },
    {
      "constant": false,
      "inputs": [
        {
          "name": "newOwner",
          "type": "address"
        }
      ],
      "name": "transferOwnership",
      "outputs": [],
      "payable": false,
      "stateMutability": "nonpayable",
      "type": "function"
    },
    {
      "constant": false,
      "inputs": [
        {
          "name": "addrs",
          "type": "address[7]"
        },
        {
          "name": "uints",
          "type": "uint256[9]"
        },
        {
          "name": "feeMethod",
          "type": "uint8"
        },
        {
          "name": "side",
          "type": "uint8"
        },
        {
          "name": "saleKind",
          "type": "uint8"
        },
        {
          "name": "howToCall",
          "type": "uint8"
        },
        {
          "name": "calldata",
          "type": "bytes"
        },
        {
          "name": "replacementPattern",
          "type": "bytes"
        },
        {
          "name": "staticExtradata",
          "type": "bytes"
        },
        {
          "name": "v",
          "type": "uint8"
        },
        {
          "name": "r",
          "type": "bytes32"
        },
        {
          "name": "s",
          "type": "bytes32"
        },
        {
          "name": "nonce",
          "type": "uint256"
        }
      ],
      "name": "cancelOrderWithNonce_",
      "outputs": [],
      "payable": false,
      "stateMutability": "nonpayable",
      "type": "function"
    },
    {
      "inputs": [
        {
          "name": "registryAddress",
          "type": "address"
        },
        {
          "name": "tokenTransferProxyAddress",
          "type": "address"
        },
        {
          "name": "tokenAddress",
          "type": "address"
        },
        {
          "name": "protocolFeeAddress",
          "type": "address"
        }
      ],
      "payable": false,
      "stateMutability": "nonpayable",
      "type": "constructor"
    },
    {
      "anonymous": false,
      "inputs": [
        {
          "indexed": true,
          "name": "hash",
          "type": "bytes32"
        },
        {
          "indexed": false,
          "name": "exchange",
          "type": "address"
        },
        {
          "indexed": true,
          "name": "maker",
          "type": "address"
        },
        {
          "indexed": false,
          "name": "taker",
          "type": "address"
        },
        {
          "indexed": false,
          "name": "makerRelayerFee",
          "type": "uint256"
        },
        {
          "indexed": false,
          "name": "takerRelayerFee",
          "type": "uint256"
        },
        {
          "indexed": false,
          "name": "makerProtocolFee",
          "type": "uint256"
        },
        {
          "indexed": false,
          "name": "takerProtocolFee",
          "type": "uint256"
        },
        {
          "indexed": true,
          "name": "feeRecipient",
          "type": "address"
        },
        {
          "indexed": false,
          "name": "feeMethod",
          "type": "uint8"
        },
        {
          "indexed": false,
          "name": "side",
          "type": "uint8"
        },
        {
          "indexed": false,
          "name": "saleKind",
          "type": "uint8"
        },
        {
          "indexed": false,
          "name": "target",
          "type": "address"
        }
      ],
      "name": "OrderApprovedPartOne",
      "type": "event"
    },
    {
      "anonymous": false,
      "inputs": [
        {
          "indexed": true,
          "name": "hash",
          "type": "bytes32"
        },
        {
          "indexed": false,
          "name": "howToCall",
          "type": "uint8"
        },
        {
          "indexed": false,
          "name": "calldata",
          "type": "bytes"
        },
        {
          "indexed": false,
          "name": "replacementPattern",
          "type": "bytes"
        },
        {
          "indexed": false,
          "name": "staticTarget",
          "type": "address"
        },
        {
          "indexed": false,
          "name": "staticExtradata",
          "type": "bytes"
        },
        {
          "indexed": false,
          "name": "paymentToken",
          "type": "address"
        },
        {
          "indexed": false,
          "name": "basePrice",
          "type": "uint256"
        },
        {
          "indexed": false,
          "name": "extra",
          "type": "uint256"
        },
        {
          "indexed": false,
          "name": "listingTime",
          "type": "uint256"
        },
        {
          "indexed": false,
          "name": "expirationTime",
          "type": "uint256"
        },
        {
          "indexed": false,
          "name": "salt",
          "type": "uint256"
        },
        {
          "indexed": false,
          "name": "orderbookInclusionDesired",
          "type": "bool"
        }
      ],
      "name": "OrderApprovedPartTwo",
      "type": "event"
    },
    {
      "anonymous": false,
      "inputs": [
        {
          "indexed": true,
          "name": "hash",
          "type": "bytes32"
        }
      ],
      "name": "OrderCancelled",
      "type": "event"
    },
    {
      "anonymous": false,
      "inputs": [
        {
          "indexed": false,
          "name": "buyHash",
          "type": "bytes32"
        },
        {
          "indexed": false,
          "name": "sellHash",
          "type": "bytes32"
        },
        {
          "indexed": true,
          "name": "maker",
          "type": "address"
        },
        {
          "indexed": true,
          "name": "taker",
          "type": "address"
        },
        {
          "indexed": false,
          "name": "price",
          "type": "uint256"
        },
        {
          "indexed": true,
          "name": "metadata",
          "type": "bytes32"
        }
      ],
      "name": "OrdersMatched",
      "type": "event"
    },
    {
      "anonymous": false,
      "inputs": [
        {
          "indexed": true,
          "name": "maker",
          "type": "address"
        },
        {
          "indexed": false,
          "name": "newNonce",
          "type": "uint256"
        }
      ],
      "name": "NonceIncremented",
      "type": "event"
    },
    {
      "anonymous": false,
      "inputs": [
        {
          "indexed": true,
          "name": "previousOwner",
          "type": "address"
        }
      ],
      "name": "OwnershipRenounced",
      "type": "event"
    },
    {
      "anonymous": false,
      "inputs": [
        {
          "indexed": true,
          "name": "previousOwner",
          "type": "address"
        },
        {
          "indexed": true,
          "name": "newOwner",
          "type": "address"
        }
      ],
      "name": "OwnershipTransferred",
      "type": "event"
    }
  ],
  "transactionHash": "0x41f12d5b668bf21910dd43f06221d5fab191745f059069a4b7c0faefdfdc4d23",
  "args": [
    "0xCf7Ed3AccA5a467e9e704C703E8D87F634fB0Fc9",
    "0xDc64a140Aa3E981100a9becA4E685f962f0cF6C9",
    "0xe7f1725E7734CE288F8367e1Bb143E90bb3F0512",
    "0x9fE46736679d2D9a65F0992F2272dE9f3c7fa6e0"
  ],
  "numDeployments": 1,
  "solcInputHash": "a816b253685e3f27653dcae464f453bd",
  "bytecode": "0x60806040526000805460ff1916815560088190556009553480156200002357600080fd5b50604051608080620060ed83398101604081815282516020808501518386015160609096015160008054610100330261010060a860020a03199091161790557f454950373132446f6d61696e28737472696e67206e616d652c737472696e672086527f76657273696f6e2c75696e7432353620636861696e49642c6164647265737320928601929092527f766572696679696e67436f6e7472616374290000000000000000000000000000848601529251938490036052019093209093919290600080516020620060cd83398151915214620000fe57600080fd5b60408051808201825260188082527f57797665726e2045786368616e676520436f6e7472616374000000000000000060208301908152925160008051602062005eec8339815191529390918291908083835b60208310620001715780518252601f19909201916020918201910162000150565b6001836020036101000a038019825116818451168082178552505050505050905001915050604051809103902060001916141515620001af57600080fd5b60408051808201825260038082527f322e33000000000000000000000000000000000000000000000000000000000060208301908152925160008051602062005ecc8339815191529390918291908083835b60208310620002225780518252601f19909201916020918201910162000201565b6001836020036101000a0380198251168184511680821785525050505050509050019150506040518091039020600019161415156200026057600080fd5b6040517fdba08a88a748f356e8faf8578488343eab21b1741728779c9dcfdc782bc800f890806101c162005f0c8239604051908190036101c1019020919091149050620002ac57600080fd5b620002bf6401000000006200032d810204565b60015560038054600160a060020a0319908116600160a060020a03968716179091556004805482169486169490941790935560028054841692851692909217909155600a805490921692169190911790556000805461010060a860020a0319166101003302179055620003fa565b60408051600080516020620060cd83398151915260208083019190915260008051602062005eec8339815191528284015260008051602062005ecc8339815191526060830152600160808301523060a0808401919091528351808403909101815260c0909201928390528151600093918291908401908083835b60208310620003c85780518252601f199092019160209182019101620003a7565b6001836020036101000a0380198251168184511680821785525050505050509050019150506040518091039020905090565b615ac2806200040a6000396000f3006080604052600436106101a85763ffffffff60e060020a60003504166306fdde0381146101ad5780630eefdbad1461023757806310796a471461026857806314350c24146103215780631a6b13e21461033b578063239e83df1461035357806328a8ee681461042857806331e631991461044f5780633644e515146104645780633f67ee0d14610479578063514f0330146105be57806354fd4d50146105df578063562b2ebc146105f457806360bef33a14610707578063627cdcb91461085b57806363d36c0b1461087057806364df049e1461089d578063715018a6146108b257806371d02b38146108c757806372593b4c14610a0c5780637966686814610c135780637b10399914610d5c5780637ccefc5214610d715780637d76698114610d865780637ecebe0014610ecb5780638076f00514610eec5780638da5cb5b14610f04578063a25eb5d914610f19578063a8a41c7014610f2e578063ab834bab14611082578063ca595b9a146112c5578063cae6047f1461140a578063d537e1311461141f578063e57d4adb14611626578063f2fde38b1461163e578063f63e83791461165f575b600080fd5b3480156101b957600080fd5b506101c26117b8565b6040805160208082528351818301528351919283929083019185019080838360005b838110156101fc5781810151838201526020016101e4565b50505050905090810190601f1680156102295780820380516001836020036101000a031916815260200191505b509250505060405180910390f35b34801561024357600080fd5b5061024c6117ef565b60408051600160a060020a039092168252519081900360200190f35b34801561027457600080fd5b5060408051602060046024803582810135601f810185900485028601850190965285855261030d958335600160a060020a031695369560449491939091019190819084018382808284375050604080516020601f89358b018035918201839004830284018301909452808352979a9998810197919650918201945092508291508401838280828437509497506117fe9650505050505050565b604080519115158252519081900360200190f35b34801561032d57600080fd5b5061033960043561186d565b005b34801561034757600080fd5b5061033960043561188e565b34801561035f57600080fd5b506040805160206004803580820135601f81018490048402850184019095528484526101c294369492936024939284019190819084018382808284375050604080516020601f89358b018035918201839004830284018301909452808352979a99988101979196509182019450925082915084018382808284375050604080516020601f89358b018035918201839004830284018301909452808352979a9998810197919650918201945092508291508401838280828437509497506118af9650505050505050565b34801561043457600080fd5b5061043d6118c4565b60408051918252519081900360200190f35b34801561045b57600080fd5b506101c26118ca565b34801561047057600080fd5b5061043d611901565b34801561048557600080fd5b506040805160e081810190925261043d91369160049160e49190839060079083908390808284375050604080516101208181019092529497969581810195945092506009915083908390808284375050604080516020601f60808901358a0180359182018390048302840183018552818452979a60ff8a3581169b848c013582169b9687013582169a6060880135909216995091975090955060a090940193820191819084018382808284375050604080516020601f89358b018035918201839004830284018301909452808352979a99988101979196509182019450925082915084018382808284375050604080516020601f89358b018035918201839004830284018301909452808352979a9998810197919650918201945092508291508401838280828437509497506119079650505050505050565b3480156105ca57600080fd5b50610339600160a060020a0360043516611a55565b3480156105eb57600080fd5b506101c2611aa0565b34801561060057600080fd5b506040805160206004803580820135601f810184900484028501840190955284845261030d94369492936024939284019190819084018382808284375050604080516020601f89358b018035918201839004830284018301909452808352979a99988101979196509182019450925082915084018382808284375050604080516020601f89358b018035918201839004830284018301909452808352979a99988101979196509182019450925082915084018382808284375050604080516020601f89358b018035918201839004830284018301909452808352979a999881019791965091820194509250829150840183828082843750949750611ad79650505050505050565b34801561071357600080fd5b506040805160e081810190925261030d91369160049160e49190839060079083908390808284375050604080516101208181019092529497969581810195945092506009915083908390808284375050604080516020601f60808901358a0180359182018390048302840183018552818452979a60ff8a3581169b848c013582169b9687013582169a6060880135909216995091975090955060a090940193820191819084018382808284375050604080516020601f89358b018035918201839004830284018301909452808352979a99988101979196509182019450925082915084018382808284375050604080516020601f89358b018035918201839004830284018301909452808352979a9998810197919650918201945092508291508401838280828437509497505050833560ff1694505050602082013591604001359050611b15565b34801561086757600080fd5b50610339611d2f565b34801561087c57600080fd5b5061043d60ff6004358116906024351660443560643560843560a435611d81565b3480156108a957600080fd5b5061024c611d9c565b3480156108be57600080fd5b50610339611dab565b3480156108d357600080fd5b506040805160e081810190925261043d91369160049160e49190839060079083908390808284375050604080516101208181019092529497969581810195945092506009915083908390808284375050604080516020601f60808901358a0180359182018390048302840183018552818452979a60ff8a3581169b848c013582169b9687013582169a6060880135909216995091975090955060a090940193820191819084018382808284375050604080516020601f89358b018035918201839004830284018301909452808352979a99988101979196509182019450925082915084018382808284375050604080516020601f89358b018035918201839004830284018301909452808352979a999881019791965091820194509250829150840183828082843750949750611e219650505050505050565b348015610a1857600080fd5b50604080516101c081810190925261030d9136916004916101c491908390600e9083908390808284375050604080516102408181019092529497969581810195945092506012915083908390808284375050604080516101008181019092529497969581810195945092506008915083908390808284375050604080516020601f88358a0180359182018390048302840183019094528083529699989781019691955091820193509150819084018382808284375050604080516020601f89358b018035918201839004830284018301909452808352979a99988101979196509182019450925082915084018382808284375050604080516020601f89358b018035918201839004830284018301909452808352979a99988101979196509182019450925082915084018382808284375050604080516020601f89358b018035918201839004830284018301909452808352979a99988101979196509182019450925082915084018382808284375050604080516020601f89358b018035918201839004830284018301909452808352979a99988101979196509182019450925082915084018382808284375050604080516020601f89358b018035918201839004830284018301909452808352979a999881019791965091820194509250829150840183828082843750949750611fa29650505050505050565b348015610c1f57600080fd5b506040805160e081810190925261033991369160049160e49190839060079083908390808284375050604080516101208181019092529497969581810195945092506009915083908390808284375050604080516020601f60808901358a0180359182018390048302840183018552818452979a60ff8a3581169b848c013582169b9687013582169a6060880135909216995091975090955060a090940193820191819084018382808284375050604080516020601f89358b018035918201839004830284018301909452808352979a99988101979196509182019450925082915084018382808284375050604080516020601f89358b018035918201839004830284018301909452808352979a99988101979196509182019450925082915084018382808284375094975050505091351515925061238e915050565b348015610d6857600080fd5b5061024c6124e3565b348015610d7d57600080fd5b5061043d6124f2565b348015610d9257600080fd5b506040805160e081810190925261043d91369160049160e49190839060079083908390808284375050604080516101208181019092529497969581810195945092506009915083908390808284375050604080516020601f60808901358a0180359182018390048302840183018552818452979a60ff8a3581169b848c013582169b9687013582169a6060880135909216995091975090955060a090940193820191819084018382808284375050604080516020601f89358b018035918201839004830284018301909452808352979a99988101979196509182019450925082915084018382808284375050604080516020601f89358b018035918201839004830284018301909452808352979a9998810197919650918201945092508291508401838280828437509497506124f89650505050505050565b348015610ed757600080fd5b5061043d600160a060020a0360043516612679565b348015610ef857600080fd5b5061030d60043561268b565b348015610f1057600080fd5b5061024c6126a0565b348015610f2557600080fd5b5061024c6126b4565b348015610f3a57600080fd5b506040805160e081810190925261033991369160049160e49190839060079083908390808284375050604080516101208181019092529497969581810195945092506009915083908390808284375050604080516020601f60808901358a0180359182018390048302840183018552818452979a60ff8a3581169b848c013582169b9687013582169a6060880135909216995091975090955060a090940193820191819084018382808284375050604080516020601f89358b018035918201839004830284018301909452808352979a99988101979196509182019450925082915084018382808284375050604080516020601f89358b018035918201839004830284018301909452808352979a9998810197919650918201945092508291508401838280828437509497505050833560ff16945050506020820135916040013590506126c3565b604080516101c08181019092526103399136916004916101c491908390600e9083908390808284375050604080516102408181019092529497969581810195945092506012915083908390808284375050604080516101008181019092529497969581810195945092506008915083908390808284375050604080516020601f88358a0180359182018390048302840183019094528083529699989781019691955091820193509150819084018382808284375050604080516020601f89358b018035918201839004830284018301909452808352979a99988101979196509182019450925082915084018382808284375050604080516020601f89358b018035918201839004830284018301909452808352979a99988101979196509182019450925082915084018382808284375050604080516020601f89358b018035918201839004830284018301909452808352979a99988101979196509182019450925082915084018382808284375050604080516020601f89358b018035918201839004830284018301909452808352979a99988101979196509182019450925082915084018382808284375050604080516020601f89358b018035918201839004830284018301909452808352979a999881019791965091820194509250829150840183828082843750506040805180820182529598979681810196955093506002925084915083908082843750506040805160a0818101909252949796958181019594509250600591508390839080828437509396506128c395505050505050565b3480156112d157600080fd5b506040805160e081810190925261030d91369160049160e49190839060079083908390808284375050604080516101208181019092529497969581810195945092506009915083908390808284375050604080516020601f60808901358a0180359182018390048302840183018552818452979a60ff8a3581169b848c013582169b9687013582169a6060880135909216995091975090955060a090940193820191819084018382808284375050604080516020601f89358b018035918201839004830284018301909452808352979a99988101979196509182019450925082915084018382808284375050604080516020601f89358b018035918201839004830284018301909452808352979a999881019791965091820194509250829150840183828082843750949750612cd99650505050505050565b34801561141657600080fd5b5061043d612e31565b34801561142b57600080fd5b50604080516101c081810190925261043d9136916004916101c491908390600e9083908390808284375050604080516102408181019092529497969581810195945092506012915083908390808284375050604080516101008181019092529497969581810195945092506008915083908390808284375050604080516020601f88358a0180359182018390048302840183019094528083529699989781019691955091820193509150819084018382808284375050604080516020601f89358b018035918201839004830284018301909452808352979a99988101979196509182019450925082915084018382808284375050604080516020601f89358b018035918201839004830284018301909452808352979a99988101979196509182019450925082915084018382808284375050604080516020601f89358b018035918201839004830284018301909452808352979a99988101979196509182019450925082915084018382808284375050604080516020601f89358b018035918201839004830284018301909452808352979a99988101979196509182019450925082915084018382808284375050604080516020601f89358b018035918201839004830284018301909452808352979a999881019791965091820194509250829150840183828082843750949750612e379650505050505050565b34801561163257600080fd5b5061030d600435613213565b34801561164a57600080fd5b50610339600160a060020a036004351661322a565b34801561166b57600080fd5b506040805160e081810190925261033991369160049160e49190839060079083908390808284375050604080516101208181019092529497969581810195945092506009915083908390808284375050604080516020601f60808901358a0180359182018390048302840183018552818452979a60ff8a3581169b848c013582169b9687013582169a6060880135909216995091975090955060a090940193820191819084018382808284375050604080516020601f89358b018035918201839004830284018301909452808352979a99988101979196509182019450925082915084018382808284375050604080516020601f89358b018035918201839004830284018301909452808352979a9998810197919650918201945092508291508401838280828437509497505050833560ff169450505060208201359160408101359150606001356132ce565b60408051808201909152601881527f57797665726e2045786368616e676520436f6e74726163740000000000000000602082015281565b600454600160a060020a031681565b60006060600083518551016040519080825280601f01601f191660200182016040528015611836578160200160208202803883390190505b509150506020810161184881856134bb565b905061185481866134bb565b506000604051835160208501895afa9695505050505050565b6000546101009004600160a060020a0316331461188957600080fd5b600855565b6000546101009004600160a060020a031633146118aa57600080fd5b600955565b60606118bc848484613501565b509192915050565b60095481565b60408051808201909152600a81527f42756c6b20536d61736800000000000000000000000000000000000000000000602082015281565b60015481565b604080516102e0810182528a51600160a060020a0390811682526020808d01518216818401528c8401518216838501528b51606080850191909152908c01516080840152928b015160a08301528a83015160c0830152918b015190911660e0820152600090611a479061010081018a600181111561198157fe5b815260200189600181111561199257fe5b81526020018860018111156119a357fe5b815260808d0151600160a060020a031660208201526040018760018111156119c757fe5b8152602081018790526040810186905260a0808e0151600160a060020a0316606083015260808201869052018c600660209081029190910151600160a060020a031682526080808e01519183019190915260a0808e0151604084015260c08e0151606084015260e08e0151918301919091526101008d0151910152613688565b9a9950505050505050505050565b6000546101009004600160a060020a03163314611a7157600080fd5b600a805473ffffffffffffffffffffffffffffffffffffffff1916600160a060020a0392909216919091179055565b60408051808201909152600381527f322e330000000000000000000000000000000000000000000000000000000000602082015281565b60008084511115611aed57611aed858486613501565b600082511115611b0257611b02838684613501565b611b0c85846136b6565b95945050505050565b6000611b1f6159d2565b604080516102e08101909152808f600060209081029190910151600160a060020a03168252018f600160209081029190910151600160a060020a03168252018f600260209081029190910151600160a060020a03168252018e6000602090810291909101518252018e6001602090810291909101518252018e6002602090810291909101518252018e6003602090810291909101518252018f60036020020151600160a060020a031681526020018d6001811115611bd957fe5b81526020018c6001811115611bea57fe5b81526020018b6001811115611bfb57fe5b81526020018f60046020020151600160a060020a031681526020018a6001811115611c2257fe5b8152602081018a9052604081018990526060018f60056020020151600160a060020a031681526020018781526020018f6006600781101515611c6057fe5b60209081029190910151600160a060020a03168252018e6004602090810291909101518252018e6005602090810291909101518252018e6006602090810291909101518252018e6007602090810291909101518252018e600860200201518152509050611d1d611cf982600760008560200151600160a060020a0316600160a060020a0316815260200190815260200160002054613778565b6040805160608101825260ff89168152602081018890529081018690528390613838565b9e9d5050505050505050505050505050565b33600081815260076020908152604091829020805460010190819055825181815292519093927fa82a649bbd060c9099cd7b7326e2b0dc9e9af0836480e0f849dc9eaa79710b3b92908290030190a250565b6000611d918787878787876139c5565b979650505050505050565b600a54600160a060020a031681565b6000546101009004600160a060020a03163314611dc757600080fd5b60008054604051610100909104600160a060020a0316917ff8df31144d9c2f0f6b59d69b8b98abd5459d07f2742c4df920b25aae33c6482091a26000805474ffffffffffffffffffffffffffffffffffffffff0019169055565b604080516102e0810182528a51600160a060020a0390811682526020808d01518216818401528c8401518216838501528b51606080850191909152908c01516080840152928b015160a08301528a83015160c0830152918b015190911660e0820152600090611a479061010081018a6001811115611e9b57fe5b8152602001896001811115611eac57fe5b8152602001886001811115611ebd57fe5b815260808d0151600160a060020a03166020820152604001876001811115611ee157fe5b8152602081018790526040810186905260a0808e0151600160a060020a0316606083015260808201869052018c600660209081029190910151600160a060020a03168252018b6004602090810291909101518252018b6005602090810291909101518252018b6006602090810291909101518252018b6007602090810291909101518252018b600860200201519052600760008d60016020020151600160a060020a0316600160a060020a0316815260200190815260200160002054613a58565b6000611fac6159d2565b611fb46159d2565b604080516102e08101909152808d600060209081029190910151600160a060020a03168252018d600160209081029190910151600160a060020a03168252018d600260209081029190910151600160a060020a03168252018c6000602090810291909101518252018c6001602090810291909101518252018c6002602090810291909101518252018c6003602090810291909101518252018d600360209081029190910151600160a060020a03168252018b6000602002015160ff16600181111561207b57fe5b600181111561208657fe5b81526020018b6001602002015160ff1660018111156120a157fe5b60018111156120ac57fe5b81526020018b6002602002015160ff1660018111156120c757fe5b60018111156120d257fe5b815260808e0151600160a060020a0316602082015260608c015160409091019060ff16600181111561210057fe5b600181111561210b57fe5b8152602081018b90526040810189905260a0808f0151600160a060020a0316606083015260808201889052018d600660209081029190910151600160a060020a03168252018c6004602090810291909101518252018c6005602090810291909101518252018c6006602090810291909101518252018c6007602090810291909101518252018c600860200201519052604080516102e08101909152909250808d600760209081029190910151600160a060020a03168252018d600860209081029190910151600160a060020a03168252018d600960209081029190910151600160a060020a03168252018c6009602090810291909101518252018c600a602090810291909101518252018c600b602090810291909101518252018c600c602090810291909101518252018d600a60209081029190910151600160a060020a03168252018b6004602002015160ff16600181111561226457fe5b600181111561226f57fe5b81526020018b6005602002015160ff16600181111561228a57fe5b600181111561229557fe5b81526020018b6006602002015160ff1660018111156122b057fe5b60018111156122bb57fe5b81526101608e0151600160a060020a0316602082015260e08c015160409091019060ff1660018111156122ea57fe5b60018111156122f557fe5b8152602081018a9052604081018890526101808e0151600160a060020a031660608201526080810186905260a0018d600d60209081029190910151600160a060020a031682526101a08e0151908201526101c08d015160408201526101e08d015160608201526102008d015160808201526102208d015160a090910152905061237e8282613d17565b9c9b505050505050505050505050565b6123966159d2565b604080516102e0810182528c51600160a060020a0390811682526020808f01518216818401528e8401518216838501528d51606080850191909152908e01516080840152928d015160a08301528c83015160c0830152918d015190911660e082015261010081018a600181111561240957fe5b815260200189600181111561241a57fe5b815260200188600181111561242b57fe5b815260808d0151600160a060020a0316602082015260400187600181111561244f57fe5b8152602081018790526040810186905260a0808e0151600160a060020a0316606083015260808201869052018c600660209081029190910151600160a060020a031682526080808e01519183019190915260a0808e0151604084015260c08e0151606084015260e08e0151918301919091526101008d015191015290506124d68183613ef8565b5050505050505050505050565b600354600160a060020a031681565b60085481565b604080516102e0810182528a51600160a060020a0390811682526020808d01518216818401528c8401518216838501528b51606080850191909152908c01516080840152928b015160a08301528a83015160c0830152918b015190911660e0820152600090611a479061010081018a600181111561257257fe5b815260200189600181111561258357fe5b815260200188600181111561259457fe5b815260808d0151600160a060020a031660208201526040018760018111156125b857fe5b8152602081018790526040810186905260a0808e0151600160a060020a0316606083015260808201869052018c600660209081029190910151600160a060020a03168252018b6004602090810291909101518252018b6005602090810291909101518252018b6006602090810291909101518252018b6007602090810291909101518252018b600860200201519052600760008d60016020020151600160a060020a0316600160a060020a0316815260200190815260200160002054613778565b60076020526000908152604090205481565b60056020526000908152604090205460ff1681565b6000546101009004600160a060020a031681565b600254600160a060020a031681565b6126cb6159d2565b604080516102e08101909152808e600060209081029190910151600160a060020a03168252018e600160209081029190910151600160a060020a03168252018e600260209081029190910151600160a060020a03168252018d6000602090810291909101518252018d6001602090810291909101518252018d6002602090810291909101518252018d6003602090810291909101518252018e60036020020151600160a060020a031681526020018c600181111561278557fe5b81526020018b600181111561279657fe5b81526020018a60018111156127a757fe5b815260808f0151600160a060020a031660208201526040018960018111156127cb57fe5b815260208101899052604081018890526060018e60056020020151600160a060020a031681526020018681526020018e600660078110151561280957fe5b60209081029190910151600160a060020a03168252018d6004602090810291909101518252018d6005602090810291909101518252018d6006602090810291909101518252018d6007602090810291909101518252018d6008602090810291909101519091526040805160608101825260ff8816815280830187905280820186905283830151600160a060020a0316600090815260079093529120549192506128b4918391906142f1565b50505050505050505050505050565b604080516102e0810182528c51600160a060020a0390811682526020808f01518216818401528e8401518216838501528d51606080850191909152908e01516080840152928d015160a08301528c83015160c0830152918d015190911660e082015289516124d6919061010082019060ff16600181111561294057fe5b600181111561294b57fe5b81526020018b6001602002015160ff16600181111561296657fe5b600181111561297157fe5b81526020018b6002602002015160ff16600181111561298c57fe5b600181111561299757fe5b815260808e0151600160a060020a0316602082015260608c015160409091019060ff1660018111156129c557fe5b60018111156129d057fe5b8152602081018b90526040810189905260a0808f0151600160a060020a0316606083015260808201889052018d600660209081029190910151600160a060020a03168252018c6004602090810291909101518252018c6005602090810291909101518252018c6006602090810291909101518252018c6007602090810291909101518252018c6008602002015190526040805160608101909152808560006020908102919091015160ff168252018460006020908102919091015182520184600160200201519052604080516102e08101909152808f600760209081029190910151600160a060020a03168252018f600860209081029190910151600160a060020a03168252018f600960209081029190910151600160a060020a03168252018e6009602090810291909101518252018e600a602090810291909101518252018e600b602090810291909101518252018e600c602090810291909101518252018f600a60209081029190910151600160a060020a03168252018d6004602002015160ff166001811115612b5f57fe5b6001811115612b6a57fe5b81526020018d6005602002015160ff166001811115612b8557fe5b6001811115612b9057fe5b81526020018d6006602002015160ff166001811115612bab57fe5b6001811115612bb657fe5b81526020018f600b60209081029190910151600160a060020a03168252018d6007602002015160ff166001811115612bea57fe5b6001811115612bf557fe5b8152602081018c9052604081018a90526060018f600c6020020151600160a060020a031681526020018781526020018f600d600e81101515612c3357fe5b60209081029190910151600160a060020a03168252018e600d602090810291909101518252018e600e602090810291909101518252018e600f602090810291909101518252018e6010602090810291909101518252018e6011602002015190526040805160608101909152808760016020908102919091015160ff1682520186600260209081029190910151825201866003602002015190528560046020020151614360565b6000612ce36159d2565b604080516102e0810182528c51600160a060020a0390811682526020808f01518216818401528e8401518216838501528d51606080850191909152908e01516080840152928d015160a08301528c83015160c0830152918d015190911660e082015261010081018a6001811115612d5657fe5b8152602001896001811115612d6757fe5b8152602001886001811115612d7857fe5b815260808d0151600160a060020a03166020820152604001876001811115612d9c57fe5b8152602081018790526040810186905260a0808e0151600160a060020a0316606083015260808201869052018c600660209081029190910151600160a060020a031682526080808e01519183019190915260a0808e0151604084015260c08e0151606084015260e08e0151918301919091526101008d01519101529050612e2281614cfc565b9b9a5050505050505050505050565b61271081565b6000612e416159d2565b612e496159d2565b604080516102e08101909152808d600060209081029190910151600160a060020a03168252018d600160209081029190910151600160a060020a03168252018d600260209081029190910151600160a060020a03168252018c6000602090810291909101518252018c6001602090810291909101518252018c6002602090810291909101518252018c6003602090810291909101518252018d600360209081029190910151600160a060020a03168252018b6000602002015160ff166001811115612f1057fe5b6001811115612f1b57fe5b81526020018b6001602002015160ff166001811115612f3657fe5b6001811115612f4157fe5b81526020018b6002602002015160ff166001811115612f5c57fe5b6001811115612f6757fe5b815260808e0151600160a060020a0316602082015260608c015160409091019060ff166001811115612f9557fe5b6001811115612fa057fe5b8152602081018b90526040810189905260a0808f0151600160a060020a0316606083015260808201889052018d600660209081029190910151600160a060020a03168252018c6004602090810291909101518252018c6005602090810291909101518252018c6006602090810291909101518252018c6007602090810291909101518252018c600860200201519052604080516102e08101909152909250808d600760209081029190910151600160a060020a03168252018d600860209081029190910151600160a060020a03168252018d600960209081029190910151600160a060020a03168252018c6009602090810291909101518252018c600a602090810291909101518252018c600b602090810291909101518252018c600c602090810291909101518252018d600a60209081029190910151600160a060020a03168252018b6004602002015160ff1660018111156130f957fe5b600181111561310457fe5b81526020018b6005602002015160ff16600181111561311f57fe5b600181111561312a57fe5b81526020018b6006602002015160ff16600181111561314557fe5b600181111561315057fe5b81526101608e0151600160a060020a0316602082015260e08c015160409091019060ff16600181111561317f57fe5b600181111561318a57fe5b8152602081018a9052604081018890526101808e0151600160a060020a031660608201526080810186905260a0018d600d60209081029190910151600160a060020a031682526101a08e0151908201526101c08d015160408201526101e08d015160608201526102008d015160808201526102208d015160a090910152905061237e8282614d9f565b60008181526006602052604090205415155b919050565b6000546101009004600160a060020a0316331461324657600080fd5b600160a060020a038116151561325b57600080fd5b60008054604051600160a060020a038085169361010090930416917f8be0079c531659141344cd1fd0a4f28419497f9722a3daafe3b4186f6b6457e091a360008054600160a060020a039092166101000274ffffffffffffffffffffffffffffffffffffffff0019909216919091179055565b6132d66159d2565b604080516102e08101909152808f600060209081029190910151600160a060020a03168252018f600160209081029190910151600160a060020a03168252018f600260209081029190910151600160a060020a03168252018e6000602090810291909101518252018e6001602090810291909101518252018e6002602090810291909101518252018e6003602090810291909101518252018f60036020020151600160a060020a031681526020018d600181111561339057fe5b81526020018c60018111156133a157fe5b81526020018b60018111156133b257fe5b81526020018f60046020020151600160a060020a031681526020018a60018111156133d957fe5b8152602081018a9052604081018990526060018f60056020020151600160a060020a031681526020018781526020018f600660078110151561341757fe5b60209081029190910151600160a060020a03168252018e6004602090810291909101518252018e6005602090810291909101518252018e6006602090810291909101518252018e6007602090810291909101518252018e6008602002015181525090506134ab816060604051908101604052808860ff168152602001876000191681526020018660001916815250846142f1565b5050505050505050505050505050565b600080825111156134f857815180602001830160208401855b600183831014156134ef5781518152602091820191016134d4565b50505092909201915b50815b92915050565b60008060008451865114151561351657600080fd5b835186511461352457600080fd5b855160209004925060208084029250839083041461353e57fe5b5060005b8281101561356e5760010160208102848101518682015191880180519282169119909216179052613542565b600083111561359e5782905080600101602002808501518187015181168289015182191617828901525050613680565b50805b85518110156136805784818151811015156135b857fe5b90602001015160f860020a900460f860020a0284828151811015156135d957fe5b90602001015160f860020a900460f860020a021686828151811015156135fb57fe5b90602001015160f860020a900460f860020a02858381518110151561361c57fe5b90602001015160f860020a900460f860020a0260ff60f860020a02181617868281518110151561364857fe5b9060200101907effffffffffffffffffffffffffffffffffffffffffffffffffffffffffffff1916908160001a9053506001016135a1565b505050505050565b60006134fb826101200151836101400151846102400151856102600151866102800151876102a001516139c5565b6000816040518082805190602001908083835b602083106136e85780518252601f1990920191602091820191016136c9565b51815160209384036101000a6000190180199092169116179052604051919093018190038120885190955088945090928392508401908083835b602083106137415780518252601f199092019160209182019101613722565b5181516020939093036101000a60001901801990911692169190911790526040519201829003909120939093149695505050505050565b60006001546137878484613a58565b604080517f19010000000000000000000000000000000000000000000000000000000000006020808301919091526022820194909452604280820193909352815180820390930183526062019081905281519192909182918401908083835b602083106138055780518252601f1990920191602091820191016137e6565b5181516020939093036101000a600019018019909116921691909117905260405192018290039091209695505050505050565b60008061384484614cfc565b151561385357600091506139bd565b60008581526005602052604090205460ff161561387357600091506139bd565b5060008481526006602052604090205480156138b357602080850151600160a060020a0316600090815260079091526040902054600101811491506139bd565b60408301517f7fffffffffffffffffffffffffffffff5d576e7357a4501ddfe92f46681b20a010156138e857600091506139bd565b826000015160ff16601b141580156139085750826000015160ff16601c14155b1561391657600091506139bd565b602080850151845185830151604080880151815160008082528188018085528d905260ff909516818401526060810193909352608083015251600160a060020a039093169360019360a0808401949293601f19830193908390039091019190865af1158015613989573d6000803e3d6000fd5b50505060206040510351600160a060020a031614156139ab57600191506139bd565b6139ba84602001518685614e27565b91505b509392505050565b600080808760018111156139d557fe5b14156139e357859150613a4d565b60018760018111156139f157fe5b1415613a4d57613a1c613a0d86613a084288614fbd565b614fcf565b613a178587614fbd565b614ff8565b90506001886001811115613a2c57fe5b1415613a4357613a3c8682614fbd565b9150613a4d565b613a3c868261500d565b509695505050505050565b6040805161032080825261034082019092526000919060609083908360208201616400803883390190505091505060208101613ab4817fdba08a88a748f356e8faf8578488343eab21b1741728779c9dcfdc782bc800f861501a565b9050613ac481876000015161501a565b9050613ad481876020015161501a565b9050613ae481876040015161501a565b9050613af481876060015161501a565b9050613b0481876080015161501a565b9050613b14818760a0015161501a565b9050613b24818760c0015161501a565b9050613b34818760e0015161501a565b9050613b50818761010001516001811115613b4b57fe5b61501a565b9050613b67818761012001516001811115613b4b57fe5b9050613b7e818761014001516001811115613b4b57fe5b9050613b8f8187610160015161501a565b9050613ba6818761018001516001811115613b4b57fe5b9050613c1381876101a001516040518082805190602001908083835b60208310613be15780518252601f199092019160209182019101613bc2565b6001836020036101000a038019825116818451168082178552505050505050905001915050604051809103902061501a565b9050613c4d81876101c0015160405180828051906020019080838360208310613be15780518252601f199092019160209182019101613bc2565b9050613c5e81876101e0015161501a565b9050613c988187610200015160405180828051906020019080838360208310613be15780518252601f199092019160209182019101613bc2565b9050613ca98187610220015161501a565b9050613cba8187610240015161501a565b9050613ccb8187610260015161501a565b9050613cdc8187610280015161501a565b9050613ced81876102a0015161501a565b9050613cfe81876102c0015161501a565b9050613d0a818661501a565b5050602001209392505050565b6000808361012001516001811115613d2b57fe5b148015613d48575060018261012001516001811115613d4657fe5b145b8015613d7357508161010001516001811115613d6057fe5b8361010001516001811115613d7157fe5b145b8015613d9a5750816102200151600160a060020a0316836102200151600160a060020a0316145b8015613dd457506040820151600160a060020a03161580613dd457508260200151600160a060020a03168260400151600160a060020a0316145b8015613e0e57506040830151600160a060020a03161580613e0e57508160200151600160a060020a03168360400151600160a060020a0316145b8015613e69575060e0820151600160a060020a0316158015613e3c575060e0830151600160a060020a031615155b80613e69575060e0820151600160a060020a031615801590613e69575060e0830151600160a060020a0316155b8015613e905750816101600151600160a060020a0316836101600151600160a060020a0316145b8015613ebb57508161018001516001811115613ea857fe5b8361018001516001811115613eb957fe5b145b8015613ed65750613ed6836102800151846102a00151615022565b8015613ef15750613ef1826102800151836102a00151615022565b9392505050565b6020820151600090600160a060020a03163314613f1457600080fd5b602080840151600160a060020a0316600090815260079091526040902054613f3d908490613778565b60008181526006602052604090205490915015613f5957600080fd5b600760008460200151600160a060020a0316600160a060020a0316815260200190815260200160002054600101600660008360001916600019168152602001908152602001600020819055508260e00151600160a060020a03168360200151600160a060020a031682600019167f90c7f9f5b58c15f0f635bfb99f55d3d78fdbef3559e7d8abf5c81052a527662286600001518760400151886060015189608001518a60a001518b60c001518c61010001518d61012001518e61014001518f6101600151604051808b600160a060020a0316600160a060020a031681526020018a600160a060020a0316600160a060020a0316815260200189815260200188815260200187815260200186815260200185600181111561407557fe5b60ff16815260200184600181111561408957fe5b60ff16815260200183600181111561409d57fe5b60ff168152600160a060020a039092166020830152506040805191829003019950975050505050505050a480600019167fe55393c778364e440d958b39ac1debd99dcfae3775a8a04d1e79124adf6a2d08846101800151856101a00151866101c00151876101e001518861020001518961022001518a61024001518b61026001518c61028001518d6102a001518e6102c001518e604051808d600181111561414157fe5b60ff16815260200180602001806020018c600160a060020a0316600160a060020a03168152602001806020018b600160a060020a0316600160a060020a031681526020018a81526020018981526020018881526020018781526020018681526020018515151515815260200184810384528f818151815260200191508051906020019080838360005b838110156141e25781810151838201526020016141ca565b50505050905090810190601f16801561420f5780820380516001836020036101000a031916815260200191505b5084810383528e818151815260200191508051906020019080838360005b8381101561424557818101518382015260200161422d565b50505050905090810190601f1680156142725780820380516001836020036101000a031916815260200191505b5084810382528c5181528c516020918201918e019080838360005b838110156142a557818101518382015260200161428d565b50505050905090810190601f1680156142d25780820380516001836020036101000a031916815260200191505b509f5050505050505050505050505050505060405180910390a2505050565b60006142fe84848461503e565b6020850151909150600160a060020a0316331461431a57600080fd5b600081815260056020526040808220805460ff191660011790555182917f5152abf959f6564662358c2e52b702259b78bac5ee7842a0f01937e670efcc7d91a250505050565b6000805481908190819081908190819060ff161561437d57600080fd5b6000805460ff1916600117905560208c0151600160a060020a03163314156143b8576143a88c614cfc565b15156143b357600080fd5b6143c5565b6143c28c8c61506b565b96505b60208a0151600160a060020a03163314156143f3576143e38a614cfc565b15156143ee57600080fd5b614400565b6143fd8a8a61506b565b95505b61443e6040805190810160405280600181526020017f31000000000000000000000000000000000000000000000000000000000000008152506150c6565b6144488c8b613d17565b151561445357600080fd5b6144916040805190810160405280600181526020017f32000000000000000000000000000000000000000000000000000000000000008152506150c6565b6101608a0151803b95509350600085116144aa57600080fd5b6144e86040805190810160405280600181526020017f33000000000000000000000000000000000000000000000000000000000000008152506150c6565b60008c6101c00151511115614511576145118c6101a001518b6101a001518e6101c00151613501565b61454f6040805190810160405280600181526020017f34000000000000000000000000000000000000000000000000000000000000008152506150c6565b60008a6101c00151511115614578576145788a6101a001518d6101a001518c6101c00151613501565b6145b66040805190810160405280600181526020017f35000000000000000000000000000000000000000000000000000000000000008152506150c6565b6145ca8c6101a001518b6101a001516136b6565b15156145d557600080fd5b6146136040805190810160405280600181526020017f36000000000000000000000000000000000000000000000000000000000000008152506150c6565b6003546020808c0151604080517fc4552791000000000000000000000000000000000000000000000000000000008152600160a060020a0392831660048201529051919093169263c45527919260248083019391928290030181600087803b15801561467e57600080fd5b505af1158015614692573d6000803e3d6000fd5b505050506040513d60208110156146a857600080fd5b505160408051808201909152600181527f370000000000000000000000000000000000000000000000000000000000000060208201529093506146ea906150c6565b6147296040805190810160405280600281526020017f257300000000000000000000000000000000000000000000000000000000000081525084615188565b600160a060020a038316151561473e57600080fd5b61477c6040805190810160405280600181526020017f38000000000000000000000000000000000000000000000000000000000000008152506150c6565b8291506147bd6040805190810160405280600181526020017f39000000000000000000000000000000000000000000000000000000000000008152506150c6565b60208c0151600160a060020a031633146147eb576000878152600560205260409020805460ff191660011790555b60208a0151600160a060020a03163314614819576000868152600560205260409020805460ff191660011790555b6148576040805190810160405280600281526020017f31300000000000000000000000000000000000000000000000000000000000008152506150c6565b6148618c8b61525c565b90506148a16040805190810160405280600281526020017f31310000000000000000000000000000000000000000000000000000000000008152506150c6565b600360009054906101000a9004600160a060020a0316600160a060020a03166397204d8e6040518163ffffffff1660e060020a028152600401602060405180830381600087803b1580156148f457600080fd5b505af1158015614908573d6000803e3d6000fd5b505050506040513d602081101561491e57600080fd5b5051604080517f5c60da1b0000000000000000000000000000000000000000000000000000000081529051600160a060020a0392831692861691635c60da1b9160048083019260209291908290030181600087803b15801561497f57600080fd5b505af1158015614993573d6000803e3d6000fd5b505050506040513d60208110156149a957600080fd5b5051600160a060020a0316146149be57600080fd5b6149fc6040805190810160405280600281526020017f31320000000000000000000000000000000000000000000000000000000000008152506150c6565b81600160a060020a0316631b0f7ba98b61016001518c61018001518d6101a001516040518463ffffffff1660e060020a0281526004018084600160a060020a0316600160a060020a03168152602001836001811115614a5757fe5b60ff16815260200180602001828103825283818151815260200191508051906020019080838360005b83811015614a98578181015183820152602001614a80565b50505050905090810190601f168015614ac55780820380516001836020036101000a031916815260200191505b50945050505050602060405180830381600087803b158015614ae657600080fd5b505af1158015614afa573d6000803e3d6000fd5b505050506040513d6020811015614b1057600080fd5b50511515614b1d57600080fd5b614b5b6040805190810160405280600281526020017f31330000000000000000000000000000000000000000000000000000000000008152506150c6565b6101e08c0151600160a060020a031615614b9457614b898c6101e001518b6101a001518e61020001516117fe565b1515614b9457600080fd5b614bd26040805190810160405280600281526020017f31340000000000000000000000000000000000000000000000000000000000008152506150c6565b6101e08a0151600160a060020a031615614c0b57614c008a6101e001518b6101a001518c61020001516117fe565b1515614c0b57600080fd5b614c496040805190810160405280600281526020017f31350000000000000000000000000000000000000000000000000000000000008152506150c6565b60e08a01518890600160a060020a03161515614c69578a60200151614c6f565b8c602001515b60e08c0151600160a060020a0391821691161515614c91578d60200151614c97565b8b602001515b604080518b8152602081018b90528082018690529051600160a060020a0392909216917fc4109843e0b7d514e4c093114b863f8e7d8d9a458c372cd51bfe526b588006c99181900360600190a450506000805460ff1916905550505050505050505050565b8051600090600160a060020a03163014614d1857506000613225565b6020820151600160a060020a03161515614d3457506000613225565b614d48826101400151836102a0015161583c565b1515614d5657506000613225565b60018261010001516001811115614d6957fe5b148015614d8a57506008548260a001511080614d8a57506009548260c00151105b15614d9757506000613225565b506001919050565b6000806000614dd0846101200151856101400151866102400151876102600151886102800151896102a001516139c5565b9150614dfe8561012001518661014001518761024001518861026001518961028001518a6102a001516139c5565b905081811015614e0d57600080fd5b60e0840151600160a060020a031615156139bd5780611b0c565b60208181015160408084015184518251808601949094528383019190915260ff1660f860020a02606080840191909152815180840360410181526061840183526085840187815260a58501938452815160c58601528151600096939587957f1626ba7e00000000000000000000000000000000000000000000000000000000958b959493919260e50191908501908083838b5b83811015614ed2578181015183820152602001614eba565b50505050905090810190601f168015614eff5780820380516001836020036101000a031916815260200191505b50935050505060405160208183030381529060405290600160e060020a031916602082018051600160e060020a0383818316178352505050509150600080835160208501895afa801515614f57573d6000803e3d6000fd5b60203d1415614f6c5760206000803e60005191505b507fffffffff0000000000000000000000000000000000000000000000000000000081167f1626ba7e0000000000000000000000000000000000000000000000000000000014925050509392505050565b600082821115614fc957fe5b50900390565b6000821515614fe0575060006134fb565b50818102818382811515614ff057fe5b04146134fb57fe5b6000818381151561500557fe5b049392505050565b818101828110156134fb57fe5b815260200190565b60004283108015613ef15750811580613ef15750504210919050565b60008061504b8584613778565b9050615058818686613838565b151561506357600080fd5b949350505050565b602080830151600160a060020a03166000908152600790915260408120546150929061585b565b613ef18383600760008760200151600160a060020a0316600160a060020a031681526020019081526020016000205461503e565b615185816040516024018080602001828103825283818151815260200191508051906020019080838360005b8381101561510a5781810151838201526020016150f2565b50505050905090810190601f1680156151375780820380516001836020036101000a031916815260200191505b5060408051601f19818403018152919052602081018051600160e060020a03167f41304fac0000000000000000000000000000000000000000000000000000000017905292506158b1915050565b50565b60408051600160a060020a0383166044820152602481019182528351606482015283516152589285928592829160840190602086019080838360005b838110156151dc5781810151838201526020016151c4565b50505050905090810190601f1680156152095780820380516001836020036101000a031916815260200191505b5060408051601f19818403018152919052602081018051600160e060020a03167f319af3330000000000000000000000000000000000000000000000000000000017905293506158b192505050565b5050565b600080600080600080600080600080600160a060020a03168a6102200151600160a060020a031614151561529557341561529557600080fd5b61529f8b8b614d9f565b97506000881180156152be57506102208a0151600160a060020a031615155b156152dc576152dc8a61022001518c602001518c602001518b6158c8565b60e08a0151889750879650600160a060020a0316156155f8576080808c0151908b0151111561530a57600080fd5b60018a6101000151600181111561531d57fe5b14156155c55760c0808c0151908b0151111561533857600080fd5b60008a6060015111156153dc5761535e6153568b606001518a614fcf565b612710614ff8565b6102208b0151909550600160a060020a031615156153c3576153808786614fbd565b60e08b0151604051919850600160a060020a03169086156108fc029087906000818181858888f193505050501580156153bd573d6000803e3d6000fd5b506153dc565b6153dc8a61022001518b602001518c60e00151886158c8565b60008a608001511115615478576153fa6153568b608001518a614fcf565b6102208b0151909450600160a060020a0316151561545f5761541c868561500d565b60e08b0151604051919750600160a060020a03169085156108fc029086906000818181858888f19350505050158015615459573d6000803e3d6000fd5b50615478565b6154788a61022001518c602001518c60e00151876158c8565b60008a60a00151111561551c576154966153568b60a001518a614fcf565b6102208b0151909350600160a060020a031615156154f9576154b88784614fbd565b600a54604051919850600160a060020a03169084156108fc029085906000818181858888f193505050501580156154f3573d6000803e3d6000fd5b5061551c565b6102208a015160208b0151600a5461551c929190600160a060020a0316866158c8565b60008a60c0015111156155c05761553a6153568b60c001518a614fcf565b6102208b0151909250600160a060020a0316151561559d5761555c868361500d565b600a54604051919750600160a060020a03169083156108fc029084906000818181858888f19350505050158015615597573d6000803e3d6000fd5b506155c0565b6102208a015160208c0151600a546155c0929190600160a060020a0316856158c8565b6155f3565b6155dc8a602001518b60e001518c60600151615991565b6155f38b602001518b60e001518c60800151615991565b615779565b6080808b0151908c0151111561560d57600080fd5b60018a6101000151600181111561562057fe5b141561574b576102208a0151600160a060020a0316151561564057600080fd5b60c0808b0151908c0151111561565557600080fd5b60008b60600151111561568e576156736153568c606001518a614fcf565b945061568e8a61022001518c602001518d60e00151886158c8565b60008b6080015111156156c7576156ac6153568c608001518a614fcf565b93506156c78a61022001518b602001518d60e00151876158c8565b60008b60a001511115615709576156e56153568c60a001518a614fcf565b6102208b015160208d0151600a5492955061570992600160a060020a0316866158c8565b60008b60c0015111156155f3576157276153568c60c001518a614fcf565b6102208b015160208c0151600a549294506155f392600160a060020a0316856158c8565b6157628b602001518c60e001518d60600151615991565b6157798a602001518c60e001518d60800151615991565b6102208a0151600160a060020a0316151561582d573486111561579b57600080fd5b8960200151600160a060020a03166108fc889081150290604051600060405180830381858888f193505050501580156157d8573d6000803e3d6000fd5b506157e33487614fbd565b9050600081111561582d578a60200151600160a060020a03166108fc829081150290604051600060405180830381858888f1935050505015801561582b573d6000803e3d6000fd5b505b50959998505050505050505050565b60008083600181111561584b57fe5b1480613ef1575050600010919050565b604080516024808201849052825180830390910181526044909101909152602081018051600160e060020a03167ff82c50f100000000000000000000000000000000000000000000000000000000179052615185905b615185816158c06159ae6159cf565b63ffffffff16565b600081111561598b5760048054604080517f15dacbea000000000000000000000000000000000000000000000000000000008152600160a060020a03888116948201949094528684166024820152858416604482015260648101859052905192909116916315dacbea916084808201926020929091908290030181600087803b15801561595457600080fd5b505af1158015615968573d6000803e3d6000fd5b505050506040513d602081101561597e57600080fd5b5051151561598b57600080fd5b50505050565b6002546159a990600160a060020a03168484846158c8565b505050565b60006a636f6e736f6c652e6c6f679050600080835160208501845afa505050565b90565b604080516102e081018252600080825260208201819052918101829052606081018290526080810182905260a0810182905260c0810182905260e081018290529061010082019081526020016000815260200160008152600060208201819052604090910190815260200160608152602001606081526020016000600160a060020a03168152602001606081526020016000600160a060020a03168152602001600081526020016000815260200160008152602001600081526020016000815250905600a165627a7a723058204e324f8fabd08348235ff8e8adc6c632a6b7aa3d827d87ee3dc7cb227e8e389f0029e2fd538c762ee69cab09ccd70e2438075b7004dd87577dc3937e9fcc8174bb649a2ed463836165738cfa54208ff6e7847fd08cbaac309aac057086cb0a144d134f7264657228616464726573732065786368616e67652c61646472657373206d616b65722c616464726573732074616b65722c75696e74323536206d616b657252656c617965724665652c75696e743235362074616b657252656c617965724665652c75696e74323536206d616b657250726f746f636f6c4665652c75696e743235362074616b657250726f746f636f6c4665652c6164647265737320666565526563697069656e742c75696e7438206665654d6574686f642c75696e743820736964652c75696e74382073616c654b696e642c61646472657373207461726765742c75696e743820686f77546f43616c6c2c62797465732063616c6c646174612c6279746573207265706c6163656d656e745061747465726e2c61646472657373207374617469635461726765742c6279746573207374617469634578747261646174612c61646472657373207061796d656e74546f6b656e2c75696e74323536206261736550726963652c75696e743235362065787472612c75696e74323536206c697374696e6754696d652c75696e743235362065787069726174696f6e54696d652c75696e743235362073616c742c75696e74323536206e6f6e6365298b73c3c69bb8fe3d512ecc4cf759cc79239f7b179b0ffacaa9a75d522b39400f",
  "devdoc": {
    "methods": {
      "approveOrder_(address[7],uint256[9],uint8,uint8,uint8,uint8,bytes,bytes,bytes,bool)": {
        "details": "Call approveOrder - Solidity ABI encoding limitation workaround, hopefully temporary.\r"
      },
      "approvedOrders(bytes32)": {
        "details": "Determine if an order has been approved. Note that the order may not still\r be valid in cases where the maker's nonce has been incremented.\r",
        "params": {
          "hash": "Hash of the order\r"
        },
        "return": "whether or not the order was approved.\r"
      },
      "atomicMatch_(address[14],uint256[18],uint8[8],bytes,bytes,bytes,bytes,bytes,bytes,uint8[2],bytes32[5])": {
        "details": "Call atomicMatch - Solidity ABI encoding limitation workaround, hopefully temporary.\r"
      },
      "calculateCurrentPrice_(address[7],uint256[9],uint8,uint8,uint8,uint8,bytes,bytes,bytes)": {
        "details": "Call calculateCurrentPrice - Solidity ABI encoding limitation workaround, hopefully temporary.\r"
      },
      "calculateFinalPrice(uint8,uint8,uint256,uint256,uint256,uint256)": {
        "details": "Call calculateFinalPrice - library function exposed for testing.\r"
      },
      "calculateMatchPrice_(address[14],uint256[18],uint8[8],bytes,bytes,bytes,bytes,bytes,bytes)": {
        "details": "Call calculateMatchPrice - Solidity ABI encoding limitation workaround, hopefully temporary.\r"
      },
      "cancelOrderWithNonce_(address[7],uint256[9],uint8,uint8,uint8,uint8,bytes,bytes,bytes,uint8,bytes32,bytes32,uint256)": {
        "details": "Call cancelOrder, supplying a specific nonce  enables cancelling orders\r that were signed with nonces greater than the current nonce.\r"
      },
      "cancelOrder_(address[7],uint256[9],uint8,uint8,uint8,uint8,bytes,bytes,bytes,uint8,bytes32,bytes32)": {
        "details": "Call cancelOrder - Solidity ABI encoding limitation workaround, hopefully temporary.\r"
      },
      "changeMinimumMakerProtocolFee(uint256)": {
        "details": "Change the minimum maker fee paid to the protocol (owner only)\r",
        "params": {
          "newMinimumMakerProtocolFee": "New fee to set in basis points\r"
        }
      },
      "changeMinimumTakerProtocolFee(uint256)": {
        "details": "Change the minimum taker fee paid to the protocol (owner only)\r",
        "params": {
          "newMinimumTakerProtocolFee": "New fee to set in basis points\r"
        }
      },
      "changeProtocolFeeRecipient(address)": {
        "details": "Change the protocol fee recipient (owner only)\r",
        "params": {
          "newProtocolFeeRecipient": "New protocol fee recipient address\r"
        }
      },
      "guardedArrayReplace(bytes,bytes,bytes)": {
        "details": "Call guardedArrayReplace - library function exposed for testing.\r"
      },
      "hashOrder_(address[7],uint256[9],uint8,uint8,uint8,uint8,bytes,bytes,bytes)": {
        "details": "Call hashOrder - Solidity ABI encoding limitation workaround, hopefully temporary.\r"
      },
      "hashToSign_(address[7],uint256[9],uint8,uint8,uint8,uint8,bytes,bytes,bytes)": {
        "details": "Call hashToSign - Solidity ABI encoding limitation workaround, hopefully temporary.\r"
      },
      "orderCalldataCanMatch(bytes,bytes,bytes,bytes)": {
        "details": "Return whether or not two orders' calldata specifications can match\r",
        "params": {
          "buyCalldata": "Buy-side order calldata\r",
          "buyReplacementPattern": "Buy-side order calldata replacement mask\r",
          "sellCalldata": "Sell-side order calldata\r",
          "sellReplacementPattern": "Sell-side order calldata replacement mask\r"
        },
        "return": "Whether the orders' calldata can be matched\r"
      },
      "ordersCanMatch_(address[14],uint256[18],uint8[8],bytes,bytes,bytes,bytes,bytes,bytes)": {
        "details": "Call ordersCanMatch - Solidity ABI encoding limitation workaround, hopefully temporary.\r"
      },
      "renounceOwnership()": {
        "details": "Allows the current owner to relinquish control of the contract.\r"
      },
      "staticCall(address,bytes,bytes)": {
        "details": "Execute a STATICCALL (introduced with Ethereum Metropolis, non-state-modifying external call)\r",
        "params": {
          "calldata": "Calldata (appended to extradata)\r",
          "extradata": "Base data for STATICCALL (probably function selector and argument encoding)\r",
          "target": "Contract to call\r"
        },
        "return": "The result of the call (success or failure)\r"
      },
      "transferOwnership(address)": {
        "details": "Allows the current owner to transfer control of the contract to a newOwner.\r",
        "params": {
          "newOwner": "The address to transfer ownership to.\r"
        }
      },
      "validateOrderParameters_(address[7],uint256[9],uint8,uint8,uint8,uint8,bytes,bytes,bytes)": {
        "details": "Call validateOrderParameters - Solidity ABI encoding limitation workaround, hopefully temporary.\r"
      },
      "validateOrder_(address[7],uint256[9],uint8,uint8,uint8,uint8,bytes,bytes,bytes,uint8,bytes32,bytes32)": {
        "details": "Call validateOrder - Solidity ABI encoding limitation workaround, hopefully temporary.\r"
      }
    }
  },
  "userdoc": {
    "methods": {
      "incrementNonce()": {
        "notice": "Increment a particular maker's nonce, thereby invalidating all orders that were not signed\r with the original nonce.\r"
      }
    }
  }
}