{
  "address": "0xCf7Ed3AccA5a467e9e704C703E8D87F634fB0Fc9",
  "abi": [
    {
      "constant": true,
      "inputs": [],
      "name": "name",
      "outputs": [
        {
          "name": "",
          "type": "string"
        }
      ],
      "payable": false,
      "stateMutability": "view",
      "type": "function"
    },
    {
      "constant": true,
      "inputs": [],
      "name": "initialAddressSet",
      "outputs": [
        {
          "name": "",
          "type": "bool"
        }
      ],
      "payable": false,
      "stateMutability": "view",
      "type": "function"
    },
    {
      "constant": false,
      "inputs": [
        {
          "name": "addr",
          "type": "address"
        }
      ],
      "name": "endGrantAuthentication",
      "outputs": [],
      "payable": false,
      "stateMutability": "nonpayable",
      "type": "function"
    },
    {
      "constant": false,
      "inputs": [
        {
          "name": "addr",
          "type": "address"
        }
      ],
      "name": "revokeAuthentication",
      "outputs": [],
      "payable": false,
      "stateMutability": "nonpayable",
      "type": "function"
    },
    {
      "constant": true,
      "inputs": [
        {
          "name": "",
          "type": "address"
        }
      ],
      "name": "pending",
      "outputs": [
        {
          "name": "",
          "type": "uint256"
        }
      ],
      "payable": false,
      "stateMutability": "view",
      "type": "function"
    },
    {
      "constant": true,
      "inputs": [
        {
          "name": "",
          "type": "address"
        }
      ],
      "name": "contracts",
      "outputs": [
        {
          "name": "",
          "type": "bool"
        }
      ],
      "payable": false,
      "stateMutability": "view",
      "type": "function"
    },
    {
      "constant": false,
      "inputs": [],
      "name": "renounceOwnership",
      "outputs": [],
      "payable": false,
      "stateMutability": "nonpayable",
      "type": "function"
    },
    {
      "constant": true,
      "inputs": [],
      "name": "owner",
      "outputs": [
        {
          "name": "",
          "type": "address"
        }
      ],
      "payable": false,
      "stateMutability": "view",
      "type": "function"
    },
    {
      "constant": true,
      "inputs": [],
      "name": "delegateProxyImplementation",
      "outputs": [
        {
          "name": "",
          "type": "address"
        }
      ],
      "payable": false,
      "stateMutability": "view",
      "type": "function"
    },
    {
      "constant": true,
      "inputs": [
        {
          "name": "",
          "type": "address"
        }
      ],
      "name": "proxies",
      "outputs": [
        {
          "name": "",
          "type": "address"
        }
      ],
      "payable": false,
      "stateMutability": "view",
      "type": "function"
    },
    {
      "constant": false,
      "inputs": [
        {
          "name": "addr",
          "type": "address"
        }
      ],
      "name": "startGrantAuthentication",
      "outputs": [],
      "payable": false,
      "stateMutability": "nonpayable",
      "type": "function"
    },
    {
      "constant": false,
      "inputs": [],
      "name": "registerProxy",
      "outputs": [
        {
          "name": "proxy",
          "type": "address"
        }
      ],
      "payable": false,
      "stateMutability": "nonpayable",
      "type": "function"
    },
    {
      "constant": true,
      "inputs": [],
      "name": "DELAY_PERIOD",
      "outputs": [
        {
          "name": "",
          "type": "uint256"
        }
      ],
      "payable": false,
      "stateMutability": "view",
      "type": "function"
    },
    {
      "constant": false,
      "inputs": [
        {
          "name": "authAddress",
          "type": "address"
        }
      ],
      "name": "grantInitialAuthentication",
      "outputs": [],
      "payable": false,
      "stateMutability": "nonpayable",
      "type": "function"
    },
    {
      "constant": false,
      "inputs": [
        {
          "name": "newOwner",
          "type": "address"
        }
      ],
      "name": "transferOwnership",
      "outputs": [],
      "payable": false,
      "stateMutability": "nonpayable",
      "type": "function"
    },
    {
      "inputs": [],
      "payable": false,
      "stateMutability": "nonpayable",
      "type": "constructor"
    },
    {
      "anonymous": false,
      "inputs": [
        {
          "indexed": true,
          "name": "previousOwner",
          "type": "address"
        }
      ],
      "name": "OwnershipRenounced",
      "type": "event"
    },
    {
      "anonymous": false,
      "inputs": [
        {
          "indexed": true,
          "name": "previousOwner",
          "type": "address"
        },
        {
          "indexed": true,
          "name": "newOwner",
          "type": "address"
        }
      ],
      "name": "OwnershipTransferred",
      "type": "event"
    }
  ],
  "transactionHash": "0xc013d341be95b68a27dd9eafc987cd538d58c8248497cb163766bd0addb6907a",
  "args": [],
  "numDeployments": 1,
  "solcInputHash": "a816b253685e3f27653dcae464f453bd",
  "bytecode": "0x6080604052603c6005556006805460ff1916905534801561001f57600080fd5b5060008054600160a060020a0319163317905561003a61007c565b604051809103906000f080158015610056573d6000803e3d6000fd5b5060018054600160a060020a031916600160a060020a039290921691909117905561008c565b604051610f4780610eca83390190565b610e2f8061009b6000396000f3006080604052600436106100da5763ffffffff7c010000000000000000000000000000000000000000000000000000000060003504166306fdde0381146100df5780631a86ac4f1461016957806338b6e4071461019257806353376d1f146101b55780635eebea20146101d657806369dc9ff314610209578063715018a61461022a5780638da5cb5b1461023f57806397204d8e14610270578063c455279114610285578063d4e8e063146102a6578063ddd81f82146102c7578063e71a02e1146102dc578063ef7f3834146102f1578063f2fde38b14610312575b600080fd5b3480156100eb57600080fd5b506100f4610333565b6040805160208082528351818301528351919283929083019185019080838360005b8381101561012e578181015183820152602001610116565b50505050905090810190601f16801561015b5780820380516001836020036101000a031916815260200191505b509250505060405180910390f35b34801561017557600080fd5b5061017e61036a565b604080519115158252519081900360200190f35b34801561019e57600080fd5b506101b3600160a060020a0360043516610373565b005b3480156101c157600080fd5b506101b3600160a060020a036004351661042e565b3480156101e257600080fd5b506101f7600160a060020a0360043516610466565b60408051918252519081900360200190f35b34801561021557600080fd5b5061017e600160a060020a0360043516610478565b34801561023657600080fd5b506101b361048d565b34801561024b57600080fd5b506102546104f9565b60408051600160a060020a039092168252519081900360200190f35b34801561027c57600080fd5b50610254610508565b34801561029157600080fd5b50610254600160a060020a0360043516610517565b3480156102b257600080fd5b506101b3600160a060020a0360043516610532565b3480156102d357600080fd5b506102546105af565b3480156102e857600080fd5b506101f761074e565b3480156102fd57600080fd5b506101b3600160a060020a0360043516610754565b34801561031e57600080fd5b506101b3600160a060020a03600435166107b0565b60408051808201909152601d81527f50726f6a6563742057797665726e2050726f7879205265676973747279000000602082015281565b60065460ff1681565b600054600160a060020a0316331461038a57600080fd5b600160a060020a03811660009081526004602052604090205460ff161580156103ca5750600160a060020a03811660009081526003602052604090205415155b80156103f25750600554600160a060020a038216600090815260036020526040902054429101105b15156103fd57600080fd5b600160a060020a0316600090815260036020908152604080832083905560049091529020805460ff19166001179055565b600054600160a060020a0316331461044557600080fd5b600160a060020a03166000908152600460205260409020805460ff19169055565b60036020526000908152604090205481565b60046020526000908152604090205460ff1681565b600054600160a060020a031633146104a457600080fd5b60008054604051600160a060020a03909116917ff8df31144d9c2f0f6b59d69b8b98abd5459d07f2742c4df920b25aae33c6482091a26000805473ffffffffffffffffffffffffffffffffffffffff19169055565b600054600160a060020a031681565b600154600160a060020a031681565b600260205260009081526040902054600160a060020a031681565b600054600160a060020a0316331461054957600080fd5b600160a060020a03811660009081526004602052604090205460ff161580156105885750600160a060020a038116600090815260036020526040902054155b151561059357600080fd5b600160a060020a03166000908152600360205260409020429055565b33600090815260026020526040812054600160a060020a0316156105d257600080fd5b600154604080513360248201819052306044808401919091528351808403909101815260649092019092526020810180517bffffffffffffffffffffffffffffffffffffffffffffffffffffffff167f485cc955000000000000000000000000000000000000000000000000000000001790529091600160a060020a031690610659610844565b8084600160a060020a0316600160a060020a0316815260200183600160a060020a0316600160a060020a0316815260200180602001828103825283818151815260200191508051906020019080838360005b838110156106c35781810151838201526020016106ab565b50505050905090810190601f1680156106f05780820380516001836020036101000a031916815260200191505b50945050505050604051809103906000f080158015610713573d6000803e3d6000fd5b50336000908152600260205260409020805473ffffffffffffffffffffffffffffffffffffffff1916600160a060020a038316179055919050565b60055481565b600054600160a060020a0316331461076b57600080fd5b60065460ff161561077b57600080fd5b6006805460ff199081166001908117909255600160a060020a0390921660009081526004602052604090208054909216179055565b600054600160a060020a031633146107c757600080fd5b600160a060020a03811615156107dc57600080fd5b60008054604051600160a060020a03808516939216917f8be0079c531659141344cd1fd0a4f28419497f9722a3daafe3b4186f6b6457e091a36000805473ffffffffffffffffffffffffffffffffffffffff1916600160a060020a0392909216919091179055565b6040516105af80610855833901905600608060405234801561001057600080fd5b506040516105af3803806105af8339810160409081528151602083015191830151909201610046836401000000006100e0810204565b61005882640100000000610102810204565b81600160a060020a03168160405180828051906020019080838360005b8381101561008d578181015183820152602001610075565b50505050905090810190601f1680156100ba5780820380516001836020036101000a031916815260200191505b50915050600060405180830381855af491505015156100d857600080fd5b505050610165565b60018054600160a060020a031916600160a060020a0392909216919091179055565b600054600160a060020a038281169116141561011d57600080fd5b60008054600160a060020a031916600160a060020a038316908117825560405190917fbc7cd75a20ee27fd9adebab32041f755214dbc6bffa90cc0225b39da2e5c2d3b91a250565b61043b806101746000396000f3006080604052600436106100825763ffffffff7c0100000000000000000000000000000000000000000000000000000000600035041663025313a281146100c85780633659cfe6146100f95780634555d5c91461011c5780634f1ef286146101435780635c60da1b1461019d5780636fde8202146101b2578063f1739cae146101c7575b600061008c6101e8565b9050600160a060020a03811615156100a357600080fd5b60405136600082376000803683855af43d806000843e8180156100c4578184f35b8184fd5b3480156100d457600080fd5b506100dd6101f7565b60408051600160a060020a039092168252519081900360200190f35b34801561010557600080fd5b5061011a600160a060020a0360043516610206565b005b34801561012857600080fd5b5061013161022e565b60408051918252519081900360200190f35b60408051602060046024803582810135601f810185900485028601850190965285855261011a958335600160a060020a03169536956044949193909101919081908401838280828437509497506102339650505050505050565b3480156101a957600080fd5b506100dd6101e8565b3480156101be57600080fd5b506100dd6102dc565b3480156101d357600080fd5b5061011a600160a060020a03600435166102eb565b600054600160a060020a031690565b60006102016102dc565b905090565b61020e6101f7565b600160a060020a0316331461022257600080fd5b61022b81610370565b50565b600290565b61023b6101f7565b600160a060020a0316331461024f57600080fd5b61025882610206565b30600160a060020a03168160405180828051906020019080838360005b8381101561028d578181015183820152602001610275565b50505050905090810190601f1680156102ba5780820380516001836020036101000a031916815260200191505b50915050600060405180830381855af491505015156102d857600080fd5b5050565b600154600160a060020a031690565b6102f36101f7565b600160a060020a0316331461030757600080fd5b600160a060020a038116151561031c57600080fd5b7f5a3e66efaa1e445ebd894728a69d6959842ea1e97bd79b892797106e270efcd96103456101f7565b60408051600160a060020a03928316815291841660208301528051918290030190a161022b816103e0565b600054600160a060020a038281169116141561038b57600080fd5b6000805473ffffffffffffffffffffffffffffffffffffffff1916600160a060020a038316908117825560405190917fbc7cd75a20ee27fd9adebab32041f755214dbc6bffa90cc0225b39da2e5c2d3b91a250565b6001805473ffffffffffffffffffffffffffffffffffffffff1916600160a060020a03929092169190911790555600a165627a7a72305820c72a92d73a57c03f0aff85267318e6a873cb6836388152e1ff95854f7bcdd6be0029a165627a7a72305820c827303df27e979c47e409ec7cab62d0a6f4a3583982298e8de1fa200b1c4759002960806040526001805460a060020a60ff021916905534801561002057600080fd5b50610f17806100306000396000f3006080604052600436106100ae5763ffffffff7c01000000000000000000000000000000000000000000000000000000006000350416631b0f7ba981146100e65780633f801f91146101665780634555d5c9146101d4578063485cc955146101fb5780634c93505f146102225780634f8632ba1461023c5780635c60da1b1461026d57806363d256ce146102825780636fde8202146102975780637b103999146102ac5780638f4ffcb1146102c1575b60408051348152905133917fa419615bc8fda4c87663805ee2a3597a6d71c1d476911d9892f340d965bc7bf1919081900360200190a2005b3480156100f257600080fd5b50604080516020600460443581810135601f8101849004840285018401909552848452610152948235600160a060020a0316946024803560ff16953695946064949201919081908401838280828437509497506103319650505050505050565b604080519115158252519081900360200190f35b34801561017257600080fd5b50604080516020600460443581810135601f81018490048402850184019095528484526101d2948235600160a060020a0316946024803560ff169536959460649492019190819084018382808284375094975061086b9650505050505050565b005b3480156101e057600080fd5b506101e9610886565b60408051918252519081900360200190f35b34801561020757600080fd5b506101d2600160a060020a036004358116906024351661088b565b34801561022e57600080fd5b506101d26004351515610901565b34801561024857600080fd5b5061025161097c565b60408051600160a060020a039092168252519081900360200190f35b34801561027957600080fd5b5061025161098b565b34801561028e57600080fd5b5061015261099a565b3480156102a357600080fd5b506102516109aa565b3480156102b857600080fd5b506102516109b9565b3480156102cd57600080fd5b50604080516020601f6064356004818101359283018490048402850184019095528184526101d294600160a060020a038135811695602480359660443590931695369560849492019181908401838280828437509497506109c89650505050505050565b60006103716040805190810160405280600281526020017f3230000000000000000000000000000000000000000000000000000000000000815250610b2d565b60408051808201909152600781527f757365722025730000000000000000000000000000000000000000000000000060208201526002546103bb9190600160a060020a0316610bef565b6103fa6040805190810160405280600d81526020017f6d73672e73656e6465722025730000000000000000000000000000000000000081525033610bef565b60408051808201909152600a81527f7265766f6b6564202573000000000000000000000000000000000000000000006020820152600354610445919060a060020a900460ff16610cc3565b60408051606081018252602181527f72656769737472792e636f6e747261637473286d73672e73656e6465722920256020808301919091527f73000000000000000000000000000000000000000000000000000000000000008284015260035483517f69dc9ff3000000000000000000000000000000000000000000000000000000008152336004820152935161053694600160a060020a03909216926369dc9ff392602480820193918290030181600087803b15801561050557600080fd5b505af1158015610519573d6000803e3d6000fd5b505050506040513d602081101561052f57600080fd5b5051610cc3565b600254600160a060020a03163314806105f2575060035460a060020a900460ff161580156105f25750600354604080517f69dc9ff30000000000000000000000000000000000000000000000000000000081523360048201529051600160a060020a03909216916369dc9ff3916024808201926020929091908290030181600087803b1580156105c557600080fd5b505af11580156105d9573d6000803e3d6000fd5b505050506040513d60208110156105ef57600080fd5b50515b15156105fd57600080fd5b61063b6040805190810160405280600281526020017f3231000000000000000000000000000000000000000000000000000000000000815250610b2d565b600083600181111561064957fe5b141561075c5761068d6040805190810160405280600281526020017f3232000000000000000000000000000000000000000000000000000000000000815250610b2d565b6106cc6040805190810160405280600781526020017f646573742025730000000000000000000000000000000000000000000000000081525085610bef565b6106d530610d8c565b6106de82610df1565b83600160a060020a03168260405180828051906020019080838360005b838110156107135781810151838201526020016106fb565b50505050905090810190601f1680156107405780820380516001836020036101000a031916815260200191505b509150506000604051808303816000865af19150509050610825565b600183600181111561076a57fe5b1415610825576107ae6040805190810160405280600281526020017f3233000000000000000000000000000000000000000000000000000000000000815250610b2d565b83600160a060020a03168260405180828051906020019080838360005b838110156107e35781810151838201526020016107cb565b50505050905090810190601f1680156108105780820380516001836020036101000a031916815260200191505b50915050600060405180830381855af4925050505b6108646040805190810160405280600981526020017f726573756c74202573000000000000000000000000000000000000000000000081525082610cc3565b9392505050565b610876838383610331565b151561088157600080fd5b505050565b600290565b60015460a060020a900460ff16156108a257600080fd5b6001805474ff0000000000000000000000000000000000000000191660a060020a17905560028054600160a060020a0393841673ffffffffffffffffffffffffffffffffffffffff199182161790915560038054929093169116179055565b600254600160a060020a0316331461091857600080fd5b6003805482151560a060020a810274ff0000000000000000000000000000000000000000199092169190911790915560408051918252517f2165014523a6f4135deffed62d70149aad59b64de5aac51e3abbcbe2a83e2f7e9181900360200190a150565b600254600160a060020a031681565b600054600160a060020a031690565b60035460a060020a900460ff1681565b600154600160a060020a031690565b600354600160a060020a031681565b604080517f23b872dd000000000000000000000000000000000000000000000000000000008152600160a060020a03868116600483015230602483015260448201869052915184928316916323b872dd9160648083019260209291908290030181600087803b158015610a3a57600080fd5b505af1158015610a4e573d6000803e3d6000fd5b505050506040513d6020811015610a6457600080fd5b50511515610a7157600080fd5b82600160a060020a031685600160a060020a03167fd65b48fd35864b3528d38e44760be5553248f89bf3ff6b06cca57817cc2650bf86856040518083815260200180602001828103825283818151815260200191508051906020019080838360005b83811015610aeb578181015183820152602001610ad3565b50505050905090810190601f168015610b185780820380516001836020036101000a031916815260200191505b50935050505060405180910390a35050505050565b610bec816040516024018080602001828103825283818151815260200191508051906020019080838360005b83811015610b71578181015183820152602001610b59565b50505050905090810190601f168015610b9e5780820380516001836020036101000a031916815260200191505b5060408051601f19818403018152919052602081018051600160e060020a03167f41304fac000000000000000000000000000000000000000000000000000000001790529250610eb0915050565b50565b60408051600160a060020a038316604482015260248101918252835160648201528351610cbf9285928592829160840190602086019080838360005b83811015610c43578181015183820152602001610c2b565b50505050905090810190601f168015610c705780820380516001836020036101000a031916815260200191505b5060408051601f19818403018152919052602081018051600160e060020a03167f319af333000000000000000000000000000000000000000000000000000000001790529350610eb092505050565b5050565b60408051821515604482015260248101918252835160648201528351610cbf9285928592829160840190602086019080838360005b83811015610d10578181015183820152602001610cf8565b50505050905090810190601f168015610d3d5780820380516001836020036101000a031916815260200191505b5060408051601f19818403018152919052602081018051600160e060020a03167fc3b55635000000000000000000000000000000000000000000000000000000001790529350610eb092505050565b60408051600160a060020a038316602480830191909152825180830390910181526044909101909152602081018051600160e060020a03167f2c2ecbc200000000000000000000000000000000000000000000000000000000179052610bec90610eb0565b610bec816040516024018080602001828103825283818151815260200191508051906020019080838360005b83811015610e35578181015183820152602001610e1d565b50505050905090810190601f168015610e625780820380516001836020036101000a031916815260200191505b5060408051601f19818403018152919052602081018051600160e060020a03167f0be77f56000000000000000000000000000000000000000000000000000000001790529250610eb0915050565b610bec81610ebf610ec7610ee8565b63ffffffff16565b60006a636f6e736f6c652e6c6f679050600080835160208501845afa505050565b905600a165627a7a7230582005db12b2935afe678c949398261e3762ac759710a852ce41f579b9113a6ee66e0029",
  "devdoc": {
    "methods": {
      "endGrantAuthentication(address)": {
        "details": "ProxyRegistry owner only\r",
        "params": {
          "addr": "Address to which to grant permissions\r"
        }
      },
      "grantInitialAuthentication(address)": {
        "details": "No delay, can only be called once - after that the standard registry process with a delay must be used\r",
        "params": {
          "authAddress": "Address of the contract to grant authentication\r"
        }
      },
      "registerProxy()": {
        "details": "Must be called by the user which the proxy is for, creates a new AuthenticatedProxy\r",
        "return": "New AuthenticatedProxy contract\r"
      },
      "renounceOwnership()": {
        "details": "Allows the current owner to relinquish control of the contract.\r"
      },
      "revokeAuthentication(address)": {
        "details": "ProxyRegistry owner only\r",
        "params": {
          "addr": "Address of which to revoke permissions\r"
        }
      },
      "startGrantAuthentication(address)": {
        "details": "ProxyRegistry owner only\r",
        "params": {
          "addr": "Address to which to grant permissions\r"
        }
      },
      "transferOwnership(address)": {
        "details": "Allows the current owner to transfer control of the contract to a newOwner.\r",
        "params": {
          "newOwner": "The address to transfer ownership to.\r"
        }
      }
    }
  },
  "userdoc": {
    "methods": {
      "endGrantAuthentication(address)": {
        "notice": "End the process to nable access for specified contract after delay period has passed.\r "
      },
      "grantInitialAuthentication(address)": {
        "notice": "Grant authentication to the initial Exchange protocol contract\r "
      },
      "registerProxy()": {
        "notice": "Register a proxy contract with this registry\r "
      },
      "revokeAuthentication(address)": {
        "notice": "Revoke access for specified contract. Can be done instantly.\r "
      },
      "startGrantAuthentication(address)": {
        "notice": "Start the process to enable access for specified contract. Subject to delay period.\r "
      }
    }
  }
}